{
  "_format": "hh-sol-artifact-1",
  "contractName": "Event",
  "sourceName": "contracts/Event.sol",
  "abi": [
    {
      "inputs": [
        {
          "internalType": "string",
          "name": "_eventName",
          "type": "string"
        },
        {
          "internalType": "uint256",
          "name": "_dateOfEvent",
          "type": "uint256"
        },
        {
          "internalType": "string",
          "name": "_location",
          "type": "string"
        },
        {
          "internalType": "uint256",
          "name": "_maxNumOfTickets",
          "type": "uint256"
        },
        {
          "internalType": "uint256",
          "name": "_ticketPrice",
          "type": "uint256"
        },
        {
          "internalType": "address",
          "name": "_owner",
          "type": "address"
        }
      ],
      "stateMutability": "nonpayable",
      "type": "constructor"
    },
    {
      "anonymous": false,
      "inputs": [
        {
          "indexed": true,
          "internalType": "address",
          "name": "owner",
          "type": "address"
        },
        {
          "indexed": true,
          "internalType": "address",
          "name": "approved",
          "type": "address"
        },
        {
          "indexed": true,
          "internalType": "uint256",
          "name": "tokenId",
          "type": "uint256"
        }
      ],
      "name": "Approval",
      "type": "event"
    },
    {
      "anonymous": false,
      "inputs": [
        {
          "indexed": true,
          "internalType": "address",
          "name": "owner",
          "type": "address"
        },
        {
          "indexed": true,
          "internalType": "address",
          "name": "operator",
          "type": "address"
        },
        {
          "indexed": false,
          "internalType": "bool",
          "name": "approved",
          "type": "bool"
        }
      ],
      "name": "ApprovalForAll",
      "type": "event"
    },
    {
      "anonymous": false,
      "inputs": [
        {
          "indexed": true,
          "internalType": "address",
          "name": "buyerAddress",
          "type": "address"
        },
        {
          "indexed": true,
          "internalType": "uint256",
          "name": "ticketId",
          "type": "uint256"
        }
      ],
      "name": "TicketRedeemed",
      "type": "event"
    },
    {
      "anonymous": false,
      "inputs": [
        {
          "indexed": true,
          "internalType": "address",
          "name": "buyerAddress",
          "type": "address"
        },
        {
          "indexed": false,
          "internalType": "uint256",
          "name": "ticketId",
          "type": "uint256"
        }
      ],
      "name": "TicketSold",
      "type": "event"
    },
    {
      "anonymous": false,
      "inputs": [
        {
          "indexed": true,
          "internalType": "address",
          "name": "from",
          "type": "address"
        },
        {
          "indexed": true,
          "internalType": "address",
          "name": "to",
          "type": "address"
        },
        {
          "indexed": true,
          "internalType": "uint256",
          "name": "tokenId",
          "type": "uint256"
        }
      ],
      "name": "Transfer",
      "type": "event"
    },
    {
      "inputs": [
        {
          "internalType": "address",
          "name": "to",
          "type": "address"
        },
        {
          "internalType": "uint256",
          "name": "tokenId",
          "type": "uint256"
        }
      ],
      "name": "approve",
      "outputs": [],
      "stateMutability": "nonpayable",
      "type": "function"
    },
    {
      "inputs": [
        {
          "internalType": "address",
          "name": "owner",
          "type": "address"
        }
      ],
      "name": "balanceOf",
      "outputs": [
        {
          "internalType": "uint256",
          "name": "",
          "type": "uint256"
        }
      ],
      "stateMutability": "view",
      "type": "function"
    },
    {
      "inputs": [],
      "name": "dateOfEvent",
      "outputs": [
        {
          "internalType": "uint256",
          "name": "",
          "type": "uint256"
        }
      ],
      "stateMutability": "view",
      "type": "function"
    },
    {
      "inputs": [
        {
          "internalType": "uint256",
          "name": "tokenId",
          "type": "uint256"
        }
      ],
      "name": "getApproved",
      "outputs": [
        {
          "internalType": "address",
          "name": "",
          "type": "address"
        }
      ],
      "stateMutability": "view",
      "type": "function"
    },
    {
      "inputs": [],
      "name": "getEventDetails",
      "outputs": [
        {
          "components": [
            {
              "internalType": "string",
              "name": "name",
              "type": "string"
            },
            {
              "internalType": "uint256",
              "name": "date",
              "type": "uint256"
            },
            {
              "internalType": "address",
              "name": "contractAddress",
              "type": "address"
            },
            {
              "internalType": "address",
              "name": "ownerAddress",
              "type": "address"
            },
            {
              "internalType": "uint256",
              "name": "price",
              "type": "uint256"
            },
            {
              "internalType": "string",
              "name": "location",
              "type": "string"
            }
          ],
          "internalType": "struct Event.EventDetails",
          "name": "",
          "type": "tuple"
        }
      ],
      "stateMutability": "view",
      "type": "function"
    },
    {
      "inputs": [
        {
          "internalType": "address",
          "name": "owner",
          "type": "address"
        },
        {
          "internalType": "address",
          "name": "operator",
          "type": "address"
        }
      ],
      "name": "isApprovedForAll",
      "outputs": [
        {
          "internalType": "bool",
          "name": "",
          "type": "bool"
        }
      ],
      "stateMutability": "view",
      "type": "function"
    },
    {
      "inputs": [],
      "name": "location",
      "outputs": [
        {
          "internalType": "string",
          "name": "",
          "type": "string"
        }
      ],
      "stateMutability": "view",
      "type": "function"
    },
    {
      "inputs": [],
      "name": "maxNumOfTickets",
      "outputs": [
        {
          "internalType": "uint256",
          "name": "",
          "type": "uint256"
        }
      ],
      "stateMutability": "view",
      "type": "function"
    },
    {
      "inputs": [],
      "name": "mint",
      "outputs": [
        {
          "internalType": "bool",
          "name": "",
          "type": "bool"
        }
      ],
      "stateMutability": "payable",
      "type": "function"
    },
    {
      "inputs": [],
      "name": "name",
      "outputs": [
        {
          "internalType": "string",
          "name": "",
          "type": "string"
        }
      ],
      "stateMutability": "view",
      "type": "function"
    },
    {
      "inputs": [],
      "name": "owner",
      "outputs": [
        {
          "internalType": "address",
          "name": "",
          "type": "address"
        }
      ],
      "stateMutability": "view",
      "type": "function"
    },
    {
      "inputs": [
        {
          "internalType": "uint256",
          "name": "tokenId",
          "type": "uint256"
        }
      ],
      "name": "ownerOf",
      "outputs": [
        {
          "internalType": "address",
          "name": "",
          "type": "address"
        }
      ],
      "stateMutability": "view",
      "type": "function"
    },
    {
      "inputs": [
        {
          "internalType": "uint256",
          "name": "",
          "type": "uint256"
        }
      ],
      "name": "redeemedTickets",
      "outputs": [
        {
          "internalType": "bool",
          "name": "",
          "type": "bool"
        }
      ],
      "stateMutability": "view",
      "type": "function"
    },
    {
      "inputs": [],
      "name": "remainingTickets",
      "outputs": [
        {
          "internalType": "uint256",
          "name": "",
          "type": "uint256"
        }
      ],
      "stateMutability": "view",
      "type": "function"
    },
    {
      "inputs": [
        {
          "internalType": "address",
          "name": "from",
          "type": "address"
        },
        {
          "internalType": "address",
          "name": "to",
          "type": "address"
        },
        {
          "internalType": "uint256",
          "name": "tokenId",
          "type": "uint256"
        }
      ],
      "name": "safeTransferFrom",
      "outputs": [],
      "stateMutability": "nonpayable",
      "type": "function"
    },
    {
      "inputs": [
        {
          "internalType": "address",
          "name": "from",
          "type": "address"
        },
        {
          "internalType": "address",
          "name": "to",
          "type": "address"
        },
        {
          "internalType": "uint256",
          "name": "tokenId",
          "type": "uint256"
        },
        {
          "internalType": "bytes",
          "name": "data",
          "type": "bytes"
        }
      ],
      "name": "safeTransferFrom",
      "outputs": [],
      "stateMutability": "nonpayable",
      "type": "function"
    },
    {
      "inputs": [
        {
          "internalType": "address",
          "name": "operator",
          "type": "address"
        },
        {
          "internalType": "bool",
          "name": "approved",
          "type": "bool"
        }
      ],
      "name": "setApprovalForAll",
      "outputs": [],
      "stateMutability": "nonpayable",
      "type": "function"
    },
    {
      "inputs": [
        {
          "internalType": "bytes4",
          "name": "interfaceId",
          "type": "bytes4"
        }
      ],
      "name": "supportsInterface",
      "outputs": [
        {
          "internalType": "bool",
          "name": "",
          "type": "bool"
        }
      ],
      "stateMutability": "view",
      "type": "function"
    },
    {
      "inputs": [],
      "name": "symbol",
      "outputs": [
        {
          "internalType": "string",
          "name": "",
          "type": "string"
        }
      ],
      "stateMutability": "view",
      "type": "function"
    },
    {
      "inputs": [],
      "name": "ticketPrice",
      "outputs": [
        {
          "internalType": "uint256",
          "name": "",
          "type": "uint256"
        }
      ],
      "stateMutability": "view",
      "type": "function"
    },
    {
      "inputs": [
        {
          "internalType": "uint256",
          "name": "tokenId",
          "type": "uint256"
        }
      ],
      "name": "tokenURI",
      "outputs": [
        {
          "internalType": "string",
          "name": "",
          "type": "string"
        }
      ],
      "stateMutability": "view",
      "type": "function"
    },
    {
      "inputs": [
        {
          "internalType": "address",
          "name": "from",
          "type": "address"
        },
        {
          "internalType": "address",
          "name": "to",
          "type": "address"
        },
        {
          "internalType": "uint256",
          "name": "tokenId",
          "type": "uint256"
        }
      ],
      "name": "transferFrom",
      "outputs": [],
      "stateMutability": "nonpayable",
      "type": "function"
    },
    {
      "inputs": [
        {
          "internalType": "uint256",
          "name": "_id",
          "type": "uint256"
        },
        {
          "internalType": "address",
          "name": "_owner",
          "type": "address"
        },
        {
          "internalType": "bytes",
          "name": "_signature",
          "type": "bytes"
        }
      ],
      "name": "verifyTicket",
      "outputs": [
        {
          "internalType": "bool",
          "name": "",
          "type": "bool"
        }
      ],
      "stateMutability": "nonpayable",
      "type": "function"
    },
    {
      "inputs": [],
      "name": "withdraw",
      "outputs": [],
      "stateMutability": "nonpayable",
      "type": "function"
    }
  ],
  "bytecode": "0x60806040523480156200001157600080fd5b5060405162003b3838038062003b3883398181016040528101906200003791906200040a565b856040518060400160405280600481526020017f5449434b000000000000000000000000000000000000000000000000000000008152508160009080519060200190620000869291906200011d565b5080600190805190602001906200009f9291906200011d565b505050846008819055508360079080519060200190620000c19291906200011d565b508260098190555081600a8190555080600b60006101000a81548173ffffffffffffffffffffffffffffffffffffffff021916908373ffffffffffffffffffffffffffffffffffffffff16021790555050505050505062000549565b8280546200012b9062000513565b90600052602060002090601f0160209004810192826200014f57600085556200019b565b82601f106200016a57805160ff19168380011785556200019b565b828001600101855582156200019b579182015b828111156200019a5782518255916020019190600101906200017d565b5b509050620001aa9190620001ae565b5090565b5b80821115620001c9576000816000905550600101620001af565b5090565b6000604051905090565b600080fd5b600080fd5b600080fd5b600080fd5b6000601f19601f8301169050919050565b7f4e487b7100000000000000000000000000000000000000000000000000000000600052604160045260246000fd5b6200023682620001eb565b810181811067ffffffffffffffff82111715620002585762000257620001fc565b5b80604052505050565b60006200026d620001cd565b90506200027b82826200022b565b919050565b600067ffffffffffffffff8211156200029e576200029d620001fc565b5b620002a982620001eb565b9050602081019050919050565b60005b83811015620002d6578082015181840152602081019050620002b9565b83811115620002e6576000848401525b50505050565b600062000303620002fd8462000280565b62000261565b905082815260208101848484011115620003225762000321620001e6565b5b6200032f848285620002b6565b509392505050565b600082601f8301126200034f576200034e620001e1565b5b815162000361848260208601620002ec565b91505092915050565b6000819050919050565b6200037f816200036a565b81146200038b57600080fd5b50565b6000815190506200039f8162000374565b92915050565b600073ffffffffffffffffffffffffffffffffffffffff82169050919050565b6000620003d282620003a5565b9050919050565b620003e481620003c5565b8114620003f057600080fd5b50565b6000815190506200040481620003d9565b92915050565b60008060008060008060c087890312156200042a5762000429620001d7565b5b600087015167ffffffffffffffff8111156200044b576200044a620001dc565b5b6200045989828a0162000337565b96505060206200046c89828a016200038e565b955050604087015167ffffffffffffffff81111562000490576200048f620001dc565b5b6200049e89828a0162000337565b9450506060620004b189828a016200038e565b9350506080620004c489828a016200038e565b92505060a0620004d789828a01620003f3565b9150509295509295509295565b7f4e487b7100000000000000000000000000000000000000000000000000000000600052602260045260246000fd5b600060028204905060018216806200052c57607f821691505b60208210811415620005435762000542620004e4565b5b50919050565b6135df80620005596000396000f3fe60806040526004361061014b5760003560e01c80636352211e116100b6578063ba46cfe91161006f578063ba46cfe914610485578063c87b56dd146104b0578063c943c128146104ed578063e2bb3ccf14610518578063e4adaf9b14610543578063e985e9c5146105805761014b565b80636352211e1461036357806370a08231146103a05780638da5cb5b146103dd57806395d89b4114610408578063a22cb46514610433578063b88d4fde1461045c5761014b565b806323b872dd1161010857806323b872dd1461026757806336f5db49146102905780633ccfd60b146102cd57806342842e0e146102e4578063516f279e1461030d5780635d504832146103385761014b565b806301ffc9a71461015057806306fdde031461018d578063081812fc146101b8578063095ea7b3146101f55780631209b1f61461021e5780631249c58b14610249575b600080fd5b34801561015c57600080fd5b5061017760048036038101906101729190612190565b6105bd565b60405161018491906121d8565b60405180910390f35b34801561019957600080fd5b506101a261069f565b6040516101af919061228c565b60405180910390f35b3480156101c457600080fd5b506101df60048036038101906101da91906122e4565b610731565b6040516101ec9190612352565b60405180910390f35b34801561020157600080fd5b5061021c60048036038101906102179190612399565b610777565b005b34801561022a57600080fd5b5061023361088f565b60405161024091906123e8565b60405180910390f35b610251610895565b60405161025e91906121d8565b60405180910390f35b34801561027357600080fd5b5061028e60048036038101906102899190612403565b6109a0565b005b34801561029c57600080fd5b506102b760048036038101906102b2919061258b565b610a00565b6040516102c491906121d8565b60405180910390f35b3480156102d957600080fd5b506102e2610d36565b005b3480156102f057600080fd5b5061030b60048036038101906103069190612403565b610e75565b005b34801561031957600080fd5b50610322610e95565b60405161032f919061228c565b60405180910390f35b34801561034457600080fd5b5061034d610f23565b60405161035a91906123e8565b60405180910390f35b34801561036f57600080fd5b5061038a600480360381019061038591906122e4565b610f41565b6040516103979190612352565b60405180910390f35b3480156103ac57600080fd5b506103c760048036038101906103c291906125fa565b610ff3565b6040516103d491906123e8565b60405180910390f35b3480156103e957600080fd5b506103f26110ab565b6040516103ff9190612352565b60405180910390f35b34801561041457600080fd5b5061041d6110d1565b60405161042a919061228c565b60405180910390f35b34801561043f57600080fd5b5061045a60048036038101906104559190612653565b611163565b005b34801561046857600080fd5b50610483600480360381019061047e9190612693565b611179565b005b34801561049157600080fd5b5061049a6111db565b6040516104a791906123e8565b60405180910390f35b3480156104bc57600080fd5b506104d760048036038101906104d291906122e4565b6111e1565b6040516104e4919061228c565b60405180910390f35b3480156104f957600080fd5b50610502611249565b60405161050f91906123e8565b60405180910390f35b34801561052457600080fd5b5061052d61124f565b60405161053a919061280e565b60405180910390f35b34801561054f57600080fd5b5061056a600480360381019061056591906122e4565b611372565b60405161057791906121d8565b60405180910390f35b34801561058c57600080fd5b506105a760048036038101906105a29190612830565b611392565b6040516105b491906121d8565b60405180910390f35b60007f80ac58cd000000000000000000000000000000000000000000000000000000007bffffffffffffffffffffffffffffffffffffffffffffffffffffffff1916827bffffffffffffffffffffffffffffffffffffffffffffffffffffffff1916148061068857507f5b5e139f000000000000000000000000000000000000000000000000000000007bffffffffffffffffffffffffffffffffffffffffffffffffffffffff1916827bffffffffffffffffffffffffffffffffffffffffffffffffffffffff1916145b80610698575061069782611426565b5b9050919050565b6060600080546106ae9061289f565b80601f01602080910402602001604051908101604052809291908181526020018280546106da9061289f565b80156107275780601f106106fc57610100808354040283529160200191610727565b820191906000526020600020905b81548152906001019060200180831161070a57829003601f168201915b5050505050905090565b600061073c82611490565b6004600083815260200190815260200160002060009054906101000a900473ffffffffffffffffffffffffffffffffffffffff169050919050565b600061078282610f41565b90508073ffffffffffffffffffffffffffffffffffffffff168373ffffffffffffffffffffffffffffffffffffffff1614156107f3576040517f08c379a00000000000000000000000000000000000000000000000000000000081526004016107ea90612943565b60405180910390fd5b8073ffffffffffffffffffffffffffffffffffffffff166108126114db565b73ffffffffffffffffffffffffffffffffffffffff16148061084157506108408161083b6114db565b611392565b5b610880576040517f08c379a0000000000000000000000000000000000000000000000000000000008152600401610877906129d5565b60405180910390fd5b61088a83836114e3565b505050565b600a5481565b60006009546108a4600661159c565b106108e4576040517f08c379a00000000000000000000000000000000000000000000000000000000081526004016108db90612a41565b60405180910390fd5b600a543414610928576040517f08c379a000000000000000000000000000000000000000000000000000000000815260040161091f90612aad565b60405180910390fd5b61093260066115aa565b600061093e600661159c565b905061094a33826115c0565b3373ffffffffffffffffffffffffffffffffffffffff167f8ef92257fbc070823c8bb4051ff3a58b831946d893fbb1bfd9bc77b87ff77d098260405161099091906123e8565b60405180910390a2600191505090565b6109b16109ab6114db565b8261179a565b6109f0576040517f08c379a00000000000000000000000000000000000000000000000000000000081526004016109e790612b3f565b60405180910390fd5b6109fb83838361182f565b505050565b6000600c600085815260200190815260200160002060009054906101000a900460ff1615610a63576040517f08c379a0000000000000000000000000000000000000000000000000000000008152600401610a5a90612bab565b60405180910390fd5b6000610a6e85611a96565b604051602001610a7e9190612c07565b60405160208183030381529060405290506000610a9a84611bf7565b905060006040518060400160405280602081526020017f19457468657265756d205369676e6564204d6573736167653a0a303030303030815250905060008084519050603983019150620f423f811115610af357600080fd5b600080620186a090505b60008114610b995760008184610b139190612c7c565b90506000811415610b3d576000831415610b3c57600a82610b349190612c7c565b915050610afd565b5b8280610b4890612cad565b9350508181610b579190612cf6565b84610b629190612d50565b9350600a82610b719190612c7c565b9150603081610b809190612d84565b90508480610b8d90612cad565b95505080855350610afd565b6000821415610bab57601b9150610bbb565b601a82610bb89190612d84565b91505b81855260008588604051602001610bd3929190612dda565b604051602081830303815290604052805190602001209050600181886040015189600001518a6020015160405160008152602001604052604051610c1a9493929190612e33565b6020604051602081039080840390855afa158015610c3c573d6000803e3d6000fd5b5050506020604051035173ffffffffffffffffffffffffffffffffffffffff168b73ffffffffffffffffffffffffffffffffffffffff1614610cb3576040517f08c379a0000000000000000000000000000000000000000000000000000000008152600401610caa90612ec4565b60405180910390fd5b6001600c60008e815260200190815260200160002060006101000a81548160ff0219169083151502179055508b8b73ffffffffffffffffffffffffffffffffffffffff167f04c83e3a48b8728bb2e4bf1933322209bd98584759a94f66ef94275e0bf770de60405160405180910390a36001985050505050505050509392505050565b600b60009054906101000a900473ffffffffffffffffffffffffffffffffffffffff1673ffffffffffffffffffffffffffffffffffffffff163373ffffffffffffffffffffffffffffffffffffffff1614610dc6576040517f08c379a0000000000000000000000000000000000000000000000000000000008152600401610dbd90612f30565b60405180910390fd5b60003373ffffffffffffffffffffffffffffffffffffffff1647604051610dec90612f81565b60006040518083038185875af1925050503d8060008114610e29576040519150601f19603f3d011682016040523d82523d6000602084013e610e2e565b606091505b5050905080610e72576040517f08c379a0000000000000000000000000000000000000000000000000000000008152600401610e6990612fe2565b60405180910390fd5b50565b610e9083838360405180602001604052806000815250611179565b505050565b60078054610ea29061289f565b80601f0160208091040260200160405190810160405280929190818152602001828054610ece9061289f565b8015610f1b5780601f10610ef057610100808354040283529160200191610f1b565b820191906000526020600020905b815481529060010190602001808311610efe57829003601f168201915b505050505081565b6000610f2f600661159c565b600954610f3c9190612d50565b905090565b6000806002600084815260200190815260200160002060009054906101000a900473ffffffffffffffffffffffffffffffffffffffff169050600073ffffffffffffffffffffffffffffffffffffffff168173ffffffffffffffffffffffffffffffffffffffff161415610fea576040517f08c379a0000000000000000000000000000000000000000000000000000000008152600401610fe19061304e565b60405180910390fd5b80915050919050565b60008073ffffffffffffffffffffffffffffffffffffffff168273ffffffffffffffffffffffffffffffffffffffff161415611064576040517f08c379a000000000000000000000000000000000000000000000000000000000815260040161105b906130e0565b60405180910390fd5b600360008373ffffffffffffffffffffffffffffffffffffffff1673ffffffffffffffffffffffffffffffffffffffff168152602001908152602001600020549050919050565b600b60009054906101000a900473ffffffffffffffffffffffffffffffffffffffff1681565b6060600180546110e09061289f565b80601f016020809104026020016040519081016040528092919081815260200182805461110c9061289f565b80156111595780601f1061112e57610100808354040283529160200191611159565b820191906000526020600020905b81548152906001019060200180831161113c57829003601f168201915b5050505050905090565b61117561116e6114db565b8383611c88565b5050565b61118a6111846114db565b8361179a565b6111c9576040517f08c379a00000000000000000000000000000000000000000000000000000000081526004016111c090612b3f565b60405180910390fd5b6111d584848484611df5565b50505050565b60085481565b60606111ec82611490565b60006111f6611e51565b905060008151116112165760405180602001604052806000815250611241565b8061122084611a96565b604051602001611231929190612dda565b6040516020818303038152906040525b915050919050565b60095481565b611257612098565b60006040518060c0016040528061126c61069f565b815260200160085481526020013073ffffffffffffffffffffffffffffffffffffffff168152602001600b60009054906101000a900473ffffffffffffffffffffffffffffffffffffffff1673ffffffffffffffffffffffffffffffffffffffff168152602001600a548152602001600780546112e89061289f565b80601f01602080910402602001604051908101604052809291908181526020018280546113149061289f565b80156113615780601f1061133657610100808354040283529160200191611361565b820191906000526020600020905b81548152906001019060200180831161134457829003601f168201915b505050505081525090508091505090565b600c6020528060005260406000206000915054906101000a900460ff1681565b6000600560008473ffffffffffffffffffffffffffffffffffffffff1673ffffffffffffffffffffffffffffffffffffffff16815260200190815260200160002060008373ffffffffffffffffffffffffffffffffffffffff1673ffffffffffffffffffffffffffffffffffffffff16815260200190815260200160002060009054906101000a900460ff16905092915050565b60007f01ffc9a7000000000000000000000000000000000000000000000000000000007bffffffffffffffffffffffffffffffffffffffffffffffffffffffff1916827bffffffffffffffffffffffffffffffffffffffffffffffffffffffff1916149050919050565b61149981611e68565b6114d8576040517f08c379a00000000000000000000000000000000000000000000000000000000081526004016114cf9061304e565b60405180910390fd5b50565b600033905090565b816004600083815260200190815260200160002060006101000a81548173ffffffffffffffffffffffffffffffffffffffff021916908373ffffffffffffffffffffffffffffffffffffffff160217905550808273ffffffffffffffffffffffffffffffffffffffff1661155683610f41565b73ffffffffffffffffffffffffffffffffffffffff167f8c5be1e5ebec7d5bd14f71427d1e84f3dd0314c0f7b2291e5b200ac8c7c3b92560405160405180910390a45050565b600081600001549050919050565b6001816000016000828254019250508190555050565b600073ffffffffffffffffffffffffffffffffffffffff168273ffffffffffffffffffffffffffffffffffffffff161415611630576040517f08c379a00000000000000000000000000000000000000000000000000000000081526004016116279061314c565b60405180910390fd5b61163981611e68565b15611679576040517f08c379a0000000000000000000000000000000000000000000000000000000008152600401611670906131b8565b60405180910390fd5b61168560008383611ed4565b6001600360008473ffffffffffffffffffffffffffffffffffffffff1673ffffffffffffffffffffffffffffffffffffffff16815260200190815260200160002060008282546116d59190612d84565b92505081905550816002600083815260200190815260200160002060006101000a81548173ffffffffffffffffffffffffffffffffffffffff021916908373ffffffffffffffffffffffffffffffffffffffff160217905550808273ffffffffffffffffffffffffffffffffffffffff16600073ffffffffffffffffffffffffffffffffffffffff167fddf252ad1be2c89b69c2b068fc378daa952ba7f163c4a11628f55a4df523b3ef60405160405180910390a461179660008383611ed9565b5050565b6000806117a683610f41565b90508073ffffffffffffffffffffffffffffffffffffffff168473ffffffffffffffffffffffffffffffffffffffff1614806117e857506117e78185611392565b5b8061182657508373ffffffffffffffffffffffffffffffffffffffff1661180e84610731565b73ffffffffffffffffffffffffffffffffffffffff16145b91505092915050565b8273ffffffffffffffffffffffffffffffffffffffff1661184f82610f41565b73ffffffffffffffffffffffffffffffffffffffff16146118a5576040517f08c379a000000000000000000000000000000000000000000000000000000000815260040161189c9061324a565b60405180910390fd5b600073ffffffffffffffffffffffffffffffffffffffff168273ffffffffffffffffffffffffffffffffffffffff161415611915576040517f08c379a000000000000000000000000000000000000000000000000000000000815260040161190c906132dc565b60405180910390fd5b611920838383611ed4565b61192b6000826114e3565b6001600360008573ffffffffffffffffffffffffffffffffffffffff1673ffffffffffffffffffffffffffffffffffffffff168152602001908152602001600020600082825461197b9190612d50565b925050819055506001600360008473ffffffffffffffffffffffffffffffffffffffff1673ffffffffffffffffffffffffffffffffffffffff16815260200190815260200160002060008282546119d29190612d84565b92505081905550816002600083815260200190815260200160002060006101000a81548173ffffffffffffffffffffffffffffffffffffffff021916908373ffffffffffffffffffffffffffffffffffffffff160217905550808273ffffffffffffffffffffffffffffffffffffffff168473ffffffffffffffffffffffffffffffffffffffff167fddf252ad1be2c89b69c2b068fc378daa952ba7f163c4a11628f55a4df523b3ef60405160405180910390a4611a91838383611ed9565b505050565b60606000821415611ade576040518060400160405280600181526020017f30000000000000000000000000000000000000000000000000000000000000008152509050611bf2565b600082905060005b60008214611b10578080611af990612cad565b915050600a82611b099190612c7c565b9150611ae6565b60008167ffffffffffffffff811115611b2c57611b2b612460565b5b6040519080825280601f01601f191660200182016040528015611b5e5781602001600182028036833780820191505090505b5090505b60008514611beb57600182611b779190612d50565b9150600a85611b8691906132fc565b6030611b929190612d84565b60f81b818381518110611ba857611ba761332d565b5b60200101907effffffffffffffffffffffffffffffffffffffffffffffffffffffffffffff1916908160001a905350600a85611be49190612c7c565b9450611b62565b8093505050505b919050565b611bff6120fa565b6041825114611c43576040517f08c379a0000000000000000000000000000000000000000000000000000000008152600401611c3a906133a8565b60405180910390fd5b60008060006020850151925060408501519150606085015160001a905060405180606001604052808481526020018381526020018260ff168152509350505050919050565b8173ffffffffffffffffffffffffffffffffffffffff168373ffffffffffffffffffffffffffffffffffffffff161415611cf7576040517f08c379a0000000000000000000000000000000000000000000000000000000008152600401611cee90613414565b60405180910390fd5b80600560008573ffffffffffffffffffffffffffffffffffffffff1673ffffffffffffffffffffffffffffffffffffffff16815260200190815260200160002060008473ffffffffffffffffffffffffffffffffffffffff1673ffffffffffffffffffffffffffffffffffffffff16815260200190815260200160002060006101000a81548160ff0219169083151502179055508173ffffffffffffffffffffffffffffffffffffffff168373ffffffffffffffffffffffffffffffffffffffff167f17307eab39ab6107e8899845ad3d59bd9653f200f220920489ca2b5937696c3183604051611de891906121d8565b60405180910390a3505050565b611e0084848461182f565b611e0c84848484611ede565b611e4b576040517f08c379a0000000000000000000000000000000000000000000000000000000008152600401611e42906134a6565b60405180910390fd5b50505050565b606060405180602001604052806000815250905090565b60008073ffffffffffffffffffffffffffffffffffffffff166002600084815260200190815260200160002060009054906101000a900473ffffffffffffffffffffffffffffffffffffffff1673ffffffffffffffffffffffffffffffffffffffff1614159050919050565b505050565b505050565b6000611eff8473ffffffffffffffffffffffffffffffffffffffff16612075565b15612068578373ffffffffffffffffffffffffffffffffffffffff1663150b7a02611f286114db565b8786866040518563ffffffff1660e01b8152600401611f4a949392919061351b565b602060405180830381600087803b158015611f6457600080fd5b505af1925050508015611f9557506040513d601f19601f82011682018060405250810190611f92919061357c565b60015b612018573d8060008114611fc5576040519150601f19603f3d011682016040523d82523d6000602084013e611fca565b606091505b50600081511415612010576040517f08c379a0000000000000000000000000000000000000000000000000000000008152600401612007906134a6565b60405180910390fd5b805181602001fd5b63150b7a0260e01b7bffffffffffffffffffffffffffffffffffffffffffffffffffffffff1916817bffffffffffffffffffffffffffffffffffffffffffffffffffffffff19161491505061206d565b600190505b949350505050565b6000808273ffffffffffffffffffffffffffffffffffffffff163b119050919050565b6040518060c001604052806060815260200160008152602001600073ffffffffffffffffffffffffffffffffffffffff168152602001600073ffffffffffffffffffffffffffffffffffffffff16815260200160008152602001606081525090565b60405180606001604052806000801916815260200160008019168152602001600060ff1681525090565b6000604051905090565b600080fd5b600080fd5b60007fffffffff0000000000000000000000000000000000000000000000000000000082169050919050565b61216d81612138565b811461217857600080fd5b50565b60008135905061218a81612164565b92915050565b6000602082840312156121a6576121a561212e565b5b60006121b48482850161217b565b91505092915050565b60008115159050919050565b6121d2816121bd565b82525050565b60006020820190506121ed60008301846121c9565b92915050565b600081519050919050565b600082825260208201905092915050565b60005b8381101561222d578082015181840152602081019050612212565b8381111561223c576000848401525b50505050565b6000601f19601f8301169050919050565b600061225e826121f3565b61226881856121fe565b935061227881856020860161220f565b61228181612242565b840191505092915050565b600060208201905081810360008301526122a68184612253565b905092915050565b6000819050919050565b6122c1816122ae565b81146122cc57600080fd5b50565b6000813590506122de816122b8565b92915050565b6000602082840312156122fa576122f961212e565b5b6000612308848285016122cf565b91505092915050565b600073ffffffffffffffffffffffffffffffffffffffff82169050919050565b600061233c82612311565b9050919050565b61234c81612331565b82525050565b60006020820190506123676000830184612343565b92915050565b61237681612331565b811461238157600080fd5b50565b6000813590506123938161236d565b92915050565b600080604083850312156123b0576123af61212e565b5b60006123be85828601612384565b92505060206123cf858286016122cf565b9150509250929050565b6123e2816122ae565b82525050565b60006020820190506123fd60008301846123d9565b92915050565b60008060006060848603121561241c5761241b61212e565b5b600061242a86828701612384565b935050602061243b86828701612384565b925050604061244c868287016122cf565b9150509250925092565b600080fd5b600080fd5b7f4e487b7100000000000000000000000000000000000000000000000000000000600052604160045260246000fd5b61249882612242565b810181811067ffffffffffffffff821117156124b7576124b6612460565b5b80604052505050565b60006124ca612124565b90506124d6828261248f565b919050565b600067ffffffffffffffff8211156124f6576124f5612460565b5b6124ff82612242565b9050602081019050919050565b82818337600083830152505050565b600061252e612529846124db565b6124c0565b90508281526020810184848401111561254a5761254961245b565b5b61255584828561250c565b509392505050565b600082601f83011261257257612571612456565b5b813561258284826020860161251b565b91505092915050565b6000806000606084860312156125a4576125a361212e565b5b60006125b2868287016122cf565b93505060206125c386828701612384565b925050604084013567ffffffffffffffff8111156125e4576125e3612133565b5b6125f08682870161255d565b9150509250925092565b6000602082840312156126105761260f61212e565b5b600061261e84828501612384565b91505092915050565b612630816121bd565b811461263b57600080fd5b50565b60008135905061264d81612627565b92915050565b6000806040838503121561266a5761266961212e565b5b600061267885828601612384565b92505060206126898582860161263e565b9150509250929050565b600080600080608085870312156126ad576126ac61212e565b5b60006126bb87828801612384565b94505060206126cc87828801612384565b93505060406126dd878288016122cf565b925050606085013567ffffffffffffffff8111156126fe576126fd612133565b5b61270a8782880161255d565b91505092959194509250565b600082825260208201905092915050565b6000612732826121f3565b61273c8185612716565b935061274c81856020860161220f565b61275581612242565b840191505092915050565b612769816122ae565b82525050565b61277881612331565b82525050565b600060c083016000830151848203600086015261279b8282612727565b91505060208301516127b06020860182612760565b5060408301516127c3604086018261276f565b5060608301516127d6606086018261276f565b5060808301516127e96080860182612760565b5060a083015184820360a08601526128018282612727565b9150508091505092915050565b60006020820190508181036000830152612828818461277e565b905092915050565b600080604083850312156128475761284661212e565b5b600061285585828601612384565b925050602061286685828601612384565b9150509250929050565b7f4e487b7100000000000000000000000000000000000000000000000000000000600052602260045260246000fd5b600060028204905060018216806128b757607f821691505b602082108114156128cb576128ca612870565b5b50919050565b7f4552433732313a20617070726f76616c20746f2063757272656e74206f776e6560008201527f7200000000000000000000000000000000000000000000000000000000000000602082015250565b600061292d6021836121fe565b9150612938826128d1565b604082019050919050565b6000602082019050818103600083015261295c81612920565b9050919050565b7f4552433732313a20617070726f76652063616c6c6572206973206e6f7420746f60008201527f6b656e206f776e6572206e6f7220617070726f76656420666f7220616c6c0000602082015250565b60006129bf603e836121fe565b91506129ca82612963565b604082019050919050565b600060208201905081810360008301526129ee816129b2565b9050919050565b7f736f6c64206f7574000000000000000000000000000000000000000000000000600082015250565b6000612a2b6008836121fe565b9150612a36826129f5565b602082019050919050565b60006020820190508181036000830152612a5a81612a1e565b9050919050565b7f696e636f727265637420616d6f756e7420706169640000000000000000000000600082015250565b6000612a976015836121fe565b9150612aa282612a61565b602082019050919050565b60006020820190508181036000830152612ac681612a8a565b9050919050565b7f4552433732313a2063616c6c6572206973206e6f7420746f6b656e206f776e6560008201527f72206e6f7220617070726f766564000000000000000000000000000000000000602082015250565b6000612b29602e836121fe565b9150612b3482612acd565b604082019050919050565b60006020820190508181036000830152612b5881612b1c565b9050919050565b7f7469636b657420616c72656164792072656465656d6564000000000000000000600082015250565b6000612b956017836121fe565b9150612ba082612b5f565b602082019050919050565b60006020820190508181036000830152612bc481612b88565b9050919050565b600081905092915050565b6000612be1826121f3565b612beb8185612bcb565b9350612bfb81856020860161220f565b80840191505092915050565b6000612c138284612bd6565b915081905092915050565b7f4e487b7100000000000000000000000000000000000000000000000000000000600052601260045260246000fd5b7f4e487b7100000000000000000000000000000000000000000000000000000000600052601160045260246000fd5b6000612c87826122ae565b9150612c92836122ae565b925082612ca257612ca1612c1e565b5b828204905092915050565b6000612cb8826122ae565b91507fffffffffffffffffffffffffffffffffffffffffffffffffffffffffffffffff821415612ceb57612cea612c4d565b5b600182019050919050565b6000612d01826122ae565b9150612d0c836122ae565b9250817fffffffffffffffffffffffffffffffffffffffffffffffffffffffffffffffff0483118215151615612d4557612d44612c4d565b5b828202905092915050565b6000612d5b826122ae565b9150612d66836122ae565b925082821015612d7957612d78612c4d565b5b828203905092915050565b6000612d8f826122ae565b9150612d9a836122ae565b9250827fffffffffffffffffffffffffffffffffffffffffffffffffffffffffffffffff03821115612dcf57612dce612c4d565b5b828201905092915050565b6000612de68285612bd6565b9150612df28284612bd6565b91508190509392505050565b6000819050919050565b612e1181612dfe565b82525050565b600060ff82169050919050565b612e2d81612e17565b82525050565b6000608082019050612e486000830187612e08565b612e556020830186612e24565b612e626040830185612e08565b612e6f6060830184612e08565b95945050505050565b7f696e76616c6964207469636b6574000000000000000000000000000000000000600082015250565b6000612eae600e836121fe565b9150612eb982612e78565b602082019050919050565b60006020820190508181036000830152612edd81612ea1565b9050919050565b7f6d757374206265206f776e657200000000000000000000000000000000000000600082015250565b6000612f1a600d836121fe565b9150612f2582612ee4565b602082019050919050565b60006020820190508181036000830152612f4981612f0d565b9050919050565b600081905092915050565b50565b6000612f6b600083612f50565b9150612f7682612f5b565b600082019050919050565b6000612f8c82612f5e565b9150819050919050565b7f6661696c656420746f2077697468647261770000000000000000000000000000600082015250565b6000612fcc6012836121fe565b9150612fd782612f96565b602082019050919050565b60006020820190508181036000830152612ffb81612fbf565b9050919050565b7f4552433732313a20696e76616c696420746f6b656e2049440000000000000000600082015250565b60006130386018836121fe565b915061304382613002565b602082019050919050565b600060208201905081810360008301526130678161302b565b9050919050565b7f4552433732313a2061646472657373207a65726f206973206e6f74206120766160008201527f6c6964206f776e65720000000000000000000000000000000000000000000000602082015250565b60006130ca6029836121fe565b91506130d58261306e565b604082019050919050565b600060208201905081810360008301526130f9816130bd565b9050919050565b7f4552433732313a206d696e7420746f20746865207a65726f2061646472657373600082015250565b60006131366020836121fe565b915061314182613100565b602082019050919050565b6000602082019050818103600083015261316581613129565b9050919050565b7f4552433732313a20746f6b656e20616c7265616479206d696e74656400000000600082015250565b60006131a2601c836121fe565b91506131ad8261316c565b602082019050919050565b600060208201905081810360008301526131d181613195565b9050919050565b7f4552433732313a207472616e736665722066726f6d20696e636f72726563742060008201527f6f776e6572000000000000000000000000000000000000000000000000000000602082015250565b60006132346025836121fe565b915061323f826131d8565b604082019050919050565b6000602082019050818103600083015261326381613227565b9050919050565b7f4552433732313a207472616e7366657220746f20746865207a65726f2061646460008201527f7265737300000000000000000000000000000000000000000000000000000000602082015250565b60006132c66024836121fe565b91506132d18261326a565b604082019050919050565b600060208201905081810360008301526132f5816132b9565b9050919050565b6000613307826122ae565b9150613312836122ae565b92508261332257613321612c1e565b5b828206905092915050565b7f4e487b7100000000000000000000000000000000000000000000000000000000600052603260045260246000fd5b7f696e76616c6964207369676e6174757265206c656e6774680000000000000000600082015250565b60006133926018836121fe565b915061339d8261335c565b602082019050919050565b600060208201905081810360008301526133c181613385565b9050919050565b7f4552433732313a20617070726f766520746f2063616c6c657200000000000000600082015250565b60006133fe6019836121fe565b9150613409826133c8565b602082019050919050565b6000602082019050818103600083015261342d816133f1565b9050919050565b7f4552433732313a207472616e7366657220746f206e6f6e20455243373231526560008201527f63656976657220696d706c656d656e7465720000000000000000000000000000602082015250565b60006134906032836121fe565b915061349b82613434565b604082019050919050565b600060208201905081810360008301526134bf81613483565b9050919050565b600081519050919050565b600082825260208201905092915050565b60006134ed826134c6565b6134f781856134d1565b935061350781856020860161220f565b61351081612242565b840191505092915050565b60006080820190506135306000830187612343565b61353d6020830186612343565b61354a60408301856123d9565b818103606083015261355c81846134e2565b905095945050505050565b60008151905061357681612164565b92915050565b6000602082840312156135925761359161212e565b5b60006135a084828501613567565b9150509291505056fea26469706673582212209269eb2c3602c9aa5365517bffee3faaa3022e029749bedbb71df7352b40617e64736f6c63430008090033",
  "linkReferences": {},
  "deployedLinkReferences": {}
}