{
    "_format": "hh-sol-artifact-1",
    "contractName": "Event",
    "sourceName": "contracts/Event.sol",
    "abi": [
        {
            "inputs": [
                {
                    "internalType": "string",
                    "name": "_eventName",
                    "type": "string"
                },
                {
                    "internalType": "uint256",
                    "name": "_dateOfEvent",
                    "type": "uint256"
                },
                {
                    "internalType": "string",
                    "name": "_location",
                    "type": "string"
                },
                {
                    "internalType": "uint256",
                    "name": "_maxNumOfTickets",
                    "type": "uint256"
                },
                {
                    "internalType": "uint256",
                    "name": "_ticketPrice",
                    "type": "uint256"
                },
                {
                    "internalType": "address",
                    "name": "_owner",
                    "type": "address"
                }
            ],
            "stateMutability": "nonpayable",
            "type": "constructor"
        },
        {
            "anonymous": false,
            "inputs": [
                {
                    "indexed": true,
                    "internalType": "address",
                    "name": "owner",
                    "type": "address"
                },
                {
                    "indexed": true,
                    "internalType": "address",
                    "name": "approved",
                    "type": "address"
                },
                {
                    "indexed": true,
                    "internalType": "uint256",
                    "name": "tokenId",
                    "type": "uint256"
                }
            ],
            "name": "Approval",
            "type": "event"
        },
        {
            "anonymous": false,
            "inputs": [
                {
                    "indexed": true,
                    "internalType": "address",
                    "name": "owner",
                    "type": "address"
                },
                {
                    "indexed": true,
                    "internalType": "address",
                    "name": "operator",
                    "type": "address"
                },
                {
                    "indexed": false,
                    "internalType": "bool",
                    "name": "approved",
                    "type": "bool"
                }
            ],
            "name": "ApprovalForAll",
            "type": "event"
        },
        {
            "anonymous": false,
            "inputs": [
                {
                    "indexed": true,
                    "internalType": "address",
                    "name": "buyerAddress",
                    "type": "address"
                },
                {
                    "indexed": true,
                    "internalType": "uint256",
                    "name": "ticketId",
                    "type": "uint256"
                }
            ],
            "name": "TicketRedeemed",
            "type": "event"
        },
        {
            "anonymous": false,
            "inputs": [
                {
                    "indexed": true,
                    "internalType": "address",
                    "name": "buyerAddress",
                    "type": "address"
                },
                {
                    "indexed": false,
                    "internalType": "uint256",
                    "name": "ticketId",
                    "type": "uint256"
                }
            ],
            "name": "TicketSold",
            "type": "event"
        },
        {
            "anonymous": false,
            "inputs": [
                {
                    "indexed": true,
                    "internalType": "address",
                    "name": "from",
                    "type": "address"
                },
                {
                    "indexed": true,
                    "internalType": "address",
                    "name": "to",
                    "type": "address"
                },
                {
                    "indexed": true,
                    "internalType": "uint256",
                    "name": "tokenId",
                    "type": "uint256"
                }
            ],
            "name": "Transfer",
            "type": "event"
        },
        {
            "inputs": [
                {
                    "internalType": "address",
                    "name": "to",
                    "type": "address"
                },
                {
                    "internalType": "uint256",
                    "name": "tokenId",
                    "type": "uint256"
                }
            ],
            "name": "approve",
            "outputs": [],
            "stateMutability": "nonpayable",
            "type": "function"
        },
        {
            "inputs": [
                {
                    "internalType": "address",
                    "name": "owner",
                    "type": "address"
                }
            ],
            "name": "balanceOf",
            "outputs": [
                {
                    "internalType": "uint256",
                    "name": "",
                    "type": "uint256"
                }
            ],
            "stateMutability": "view",
            "type": "function"
        },
        {
            "inputs": [],
            "name": "dateOfEvent",
            "outputs": [
                {
                    "internalType": "uint256",
                    "name": "",
                    "type": "uint256"
                }
            ],
            "stateMutability": "view",
            "type": "function"
        },
        {
            "inputs": [
                {
                    "internalType": "uint256",
                    "name": "tokenId",
                    "type": "uint256"
                }
            ],
            "name": "getApproved",
            "outputs": [
                {
                    "internalType": "address",
                    "name": "",
                    "type": "address"
                }
            ],
            "stateMutability": "view",
            "type": "function"
        },
        {
            "inputs": [
                {
                    "internalType": "address",
                    "name": "owner",
                    "type": "address"
                },
                {
                    "internalType": "address",
                    "name": "operator",
                    "type": "address"
                }
            ],
            "name": "isApprovedForAll",
            "outputs": [
                {
                    "internalType": "bool",
                    "name": "",
                    "type": "bool"
                }
            ],
            "stateMutability": "view",
            "type": "function"
        },
        {
            "inputs": [],
            "name": "location",
            "outputs": [
                {
                    "internalType": "string",
                    "name": "",
                    "type": "string"
                }
            ],
            "stateMutability": "view",
            "type": "function"
        },
        {
            "inputs": [],
            "name": "maxNumOfTickets",
            "outputs": [
                {
                    "internalType": "uint256",
                    "name": "",
                    "type": "uint256"
                }
            ],
            "stateMutability": "view",
            "type": "function"
        },
        {
            "inputs": [],
            "name": "mint",
            "outputs": [
                {
                    "internalType": "bool",
                    "name": "",
                    "type": "bool"
                }
            ],
            "stateMutability": "payable",
            "type": "function"
        },
        {
            "inputs": [],
            "name": "name",
            "outputs": [
                {
                    "internalType": "string",
                    "name": "",
                    "type": "string"
                }
            ],
            "stateMutability": "view",
            "type": "function"
        },
        {
            "inputs": [],
            "name": "owner",
            "outputs": [
                {
                    "internalType": "address",
                    "name": "",
                    "type": "address"
                }
            ],
            "stateMutability": "view",
            "type": "function"
        },
        {
            "inputs": [
                {
                    "internalType": "uint256",
                    "name": "tokenId",
                    "type": "uint256"
                }
            ],
            "name": "ownerOf",
            "outputs": [
                {
                    "internalType": "address",
                    "name": "",
                    "type": "address"
                }
            ],
            "stateMutability": "view",
            "type": "function"
        },
        {
            "inputs": [
                {
                    "internalType": "uint256",
                    "name": "",
                    "type": "uint256"
                }
            ],
            "name": "redeemedTickets",
            "outputs": [
                {
                    "internalType": "bool",
                    "name": "",
                    "type": "bool"
                }
            ],
            "stateMutability": "view",
            "type": "function"
        },
        {
            "inputs": [],
            "name": "remainingTickets",
            "outputs": [
                {
                    "internalType": "uint256",
                    "name": "",
                    "type": "uint256"
                }
            ],
            "stateMutability": "view",
            "type": "function"
        },
        {
            "inputs": [
                {
                    "internalType": "address",
                    "name": "from",
                    "type": "address"
                },
                {
                    "internalType": "address",
                    "name": "to",
                    "type": "address"
                },
                {
                    "internalType": "uint256",
                    "name": "tokenId",
                    "type": "uint256"
                }
            ],
            "name": "safeTransferFrom",
            "outputs": [],
            "stateMutability": "nonpayable",
            "type": "function"
        },
        {
            "inputs": [
                {
                    "internalType": "address",
                    "name": "from",
                    "type": "address"
                },
                {
                    "internalType": "address",
                    "name": "to",
                    "type": "address"
                },
                {
                    "internalType": "uint256",
                    "name": "tokenId",
                    "type": "uint256"
                },
                {
                    "internalType": "bytes",
                    "name": "data",
                    "type": "bytes"
                }
            ],
            "name": "safeTransferFrom",
            "outputs": [],
            "stateMutability": "nonpayable",
            "type": "function"
        },
        {
            "inputs": [
                {
                    "internalType": "address",
                    "name": "operator",
                    "type": "address"
                },
                {
                    "internalType": "bool",
                    "name": "approved",
                    "type": "bool"
                }
            ],
            "name": "setApprovalForAll",
            "outputs": [],
            "stateMutability": "nonpayable",
            "type": "function"
        },
        {
            "inputs": [
                {
                    "internalType": "bytes4",
                    "name": "interfaceId",
                    "type": "bytes4"
                }
            ],
            "name": "supportsInterface",
            "outputs": [
                {
                    "internalType": "bool",
                    "name": "",
                    "type": "bool"
                }
            ],
            "stateMutability": "view",
            "type": "function"
        },
        {
            "inputs": [],
            "name": "symbol",
            "outputs": [
                {
                    "internalType": "string",
                    "name": "",
                    "type": "string"
                }
            ],
            "stateMutability": "view",
            "type": "function"
        },
        {
            "inputs": [],
            "name": "ticketPrice",
            "outputs": [
                {
                    "internalType": "uint256",
                    "name": "",
                    "type": "uint256"
                }
            ],
            "stateMutability": "view",
            "type": "function"
        },
        {
            "inputs": [
                {
                    "internalType": "uint256",
                    "name": "tokenId",
                    "type": "uint256"
                }
            ],
            "name": "tokenURI",
            "outputs": [
                {
                    "internalType": "string",
                    "name": "",
                    "type": "string"
                }
            ],
            "stateMutability": "view",
            "type": "function"
        },
        {
            "inputs": [
                {
                    "internalType": "address",
                    "name": "from",
                    "type": "address"
                },
                {
                    "internalType": "address",
                    "name": "to",
                    "type": "address"
                },
                {
                    "internalType": "uint256",
                    "name": "tokenId",
                    "type": "uint256"
                }
            ],
            "name": "transferFrom",
            "outputs": [],
            "stateMutability": "nonpayable",
            "type": "function"
        },
        {
            "inputs": [
                {
                    "internalType": "uint256",
                    "name": "_id",
                    "type": "uint256"
                },
                {
                    "internalType": "address",
                    "name": "_owner",
                    "type": "address"
                },
                {
                    "internalType": "bytes",
                    "name": "_signature",
                    "type": "bytes"
                }
            ],
            "name": "verifyTicket",
            "outputs": [
                {
                    "internalType": "bool",
                    "name": "",
                    "type": "bool"
                }
            ],
            "stateMutability": "nonpayable",
            "type": "function"
        },
        {
            "inputs": [],
            "name": "withdraw",
            "outputs": [],
            "stateMutability": "nonpayable",
            "type": "function"
        }
    ],
    "bytecode": "0x60806040523480156200001157600080fd5b50604051620038633803806200386383398181016040528101906200003791906200040a565b856040518060400160405280600481526020017f5449434b000000000000000000000000000000000000000000000000000000008152508160009080519060200190620000869291906200011d565b5080600190805190602001906200009f9291906200011d565b505050846008819055508360079080519060200190620000c19291906200011d565b508260098190555081600a8190555080600b60006101000a81548173ffffffffffffffffffffffffffffffffffffffff021916908373ffffffffffffffffffffffffffffffffffffffff16021790555050505050505062000549565b8280546200012b9062000513565b90600052602060002090601f0160209004810192826200014f57600085556200019b565b82601f106200016a57805160ff19168380011785556200019b565b828001600101855582156200019b579182015b828111156200019a5782518255916020019190600101906200017d565b5b509050620001aa9190620001ae565b5090565b5b80821115620001c9576000816000905550600101620001af565b5090565b6000604051905090565b600080fd5b600080fd5b600080fd5b600080fd5b6000601f19601f8301169050919050565b7f4e487b7100000000000000000000000000000000000000000000000000000000600052604160045260246000fd5b6200023682620001eb565b810181811067ffffffffffffffff82111715620002585762000257620001fc565b5b80604052505050565b60006200026d620001cd565b90506200027b82826200022b565b919050565b600067ffffffffffffffff8211156200029e576200029d620001fc565b5b620002a982620001eb565b9050602081019050919050565b60005b83811015620002d6578082015181840152602081019050620002b9565b83811115620002e6576000848401525b50505050565b600062000303620002fd8462000280565b62000261565b905082815260208101848484011115620003225762000321620001e6565b5b6200032f848285620002b6565b509392505050565b600082601f8301126200034f576200034e620001e1565b5b815162000361848260208601620002ec565b91505092915050565b6000819050919050565b6200037f816200036a565b81146200038b57600080fd5b50565b6000815190506200039f8162000374565b92915050565b600073ffffffffffffffffffffffffffffffffffffffff82169050919050565b6000620003d282620003a5565b9050919050565b620003e481620003c5565b8114620003f057600080fd5b50565b6000815190506200040481620003d9565b92915050565b60008060008060008060c087890312156200042a5762000429620001d7565b5b600087015167ffffffffffffffff8111156200044b576200044a620001dc565b5b6200045989828a0162000337565b96505060206200046c89828a016200038e565b955050604087015167ffffffffffffffff81111562000490576200048f620001dc565b5b6200049e89828a0162000337565b9450506060620004b189828a016200038e565b9350506080620004c489828a016200038e565b92505060a0620004d789828a01620003f3565b9150509295509295509295565b7f4e487b7100000000000000000000000000000000000000000000000000000000600052602260045260246000fd5b600060028204905060018216806200052c57607f821691505b60208210811415620005435762000542620004e4565b5b50919050565b61330a80620005596000396000f3fe6080604052600436106101405760003560e01c80635d504832116100b6578063b88d4fde1161006f578063b88d4fde14610451578063ba46cfe91461047a578063c87b56dd146104a5578063c943c128146104e2578063e4adaf9b1461050d578063e985e9c51461054a57610140565b80635d5048321461032d5780636352211e1461035857806370a08231146103955780638da5cb5b146103d257806395d89b41146103fd578063a22cb4651461042857610140565b80631249c58b116101085780631249c58b1461023e57806323b872dd1461025c57806336f5db49146102855780633ccfd60b146102c257806342842e0e146102d9578063516f279e1461030257610140565b806301ffc9a71461014557806306fdde0314610182578063081812fc146101ad578063095ea7b3146101ea5780631209b1f614610213575b600080fd5b34801561015157600080fd5b5061016c60048036038101906101679190611fd5565b610587565b604051610179919061201d565b60405180910390f35b34801561018e57600080fd5b50610197610669565b6040516101a491906120d1565b60405180910390f35b3480156101b957600080fd5b506101d460048036038101906101cf9190612129565b6106fb565b6040516101e19190612197565b60405180910390f35b3480156101f657600080fd5b50610211600480360381019061020c91906121de565b610741565b005b34801561021f57600080fd5b50610228610859565b604051610235919061222d565b60405180910390f35b61024661085f565b604051610253919061201d565b60405180910390f35b34801561026857600080fd5b50610283600480360381019061027e9190612248565b61096a565b005b34801561029157600080fd5b506102ac60048036038101906102a791906123d0565b6109ca565b6040516102b9919061201d565b60405180910390f35b3480156102ce57600080fd5b506102d7610d00565b005b3480156102e557600080fd5b5061030060048036038101906102fb9190612248565b610e3f565b005b34801561030e57600080fd5b50610317610e5f565b60405161032491906120d1565b60405180910390f35b34801561033957600080fd5b50610342610eed565b60405161034f919061222d565b60405180910390f35b34801561036457600080fd5b5061037f600480360381019061037a9190612129565b610f0b565b60405161038c9190612197565b60405180910390f35b3480156103a157600080fd5b506103bc60048036038101906103b7919061243f565b610fbd565b6040516103c9919061222d565b60405180910390f35b3480156103de57600080fd5b506103e7611075565b6040516103f49190612197565b60405180910390f35b34801561040957600080fd5b5061041261109b565b60405161041f91906120d1565b60405180910390f35b34801561043457600080fd5b5061044f600480360381019061044a9190612498565b61112d565b005b34801561045d57600080fd5b50610478600480360381019061047391906124d8565b611143565b005b34801561048657600080fd5b5061048f6111a5565b60405161049c919061222d565b60405180910390f35b3480156104b157600080fd5b506104cc60048036038101906104c79190612129565b6111ab565b6040516104d991906120d1565b60405180910390f35b3480156104ee57600080fd5b506104f7611213565b604051610504919061222d565b60405180910390f35b34801561051957600080fd5b50610534600480360381019061052f9190612129565b611219565b604051610541919061201d565b60405180910390f35b34801561055657600080fd5b50610571600480360381019061056c919061255b565b611239565b60405161057e919061201d565b60405180910390f35b60007f80ac58cd000000000000000000000000000000000000000000000000000000007bffffffffffffffffffffffffffffffffffffffffffffffffffffffff1916827bffffffffffffffffffffffffffffffffffffffffffffffffffffffff1916148061065257507f5b5e139f000000000000000000000000000000000000000000000000000000007bffffffffffffffffffffffffffffffffffffffffffffffffffffffff1916827bffffffffffffffffffffffffffffffffffffffffffffffffffffffff1916145b806106625750610661826112cd565b5b9050919050565b606060008054610678906125ca565b80601f01602080910402602001604051908101604052809291908181526020018280546106a4906125ca565b80156106f15780601f106106c6576101008083540402835291602001916106f1565b820191906000526020600020905b8154815290600101906020018083116106d457829003601f168201915b5050505050905090565b600061070682611337565b6004600083815260200190815260200160002060009054906101000a900473ffffffffffffffffffffffffffffffffffffffff169050919050565b600061074c82610f0b565b90508073ffffffffffffffffffffffffffffffffffffffff168373ffffffffffffffffffffffffffffffffffffffff1614156107bd576040517f08c379a00000000000000000000000000000000000000000000000000000000081526004016107b49061266e565b60405180910390fd5b8073ffffffffffffffffffffffffffffffffffffffff166107dc611382565b73ffffffffffffffffffffffffffffffffffffffff16148061080b575061080a81610805611382565b611239565b5b61084a576040517f08c379a000000000000000000000000000000000000000000000000000000000815260040161084190612700565b60405180910390fd5b610854838361138a565b505050565b600a5481565b600060095461086e6006611443565b106108ae576040517f08c379a00000000000000000000000000000000000000000000000000000000081526004016108a59061276c565b60405180910390fd5b600a5434146108f2576040517f08c379a00000000000000000000000000000000000000000000000000000000081526004016108e9906127d8565b60405180910390fd5b6108fc6006611451565b60006109086006611443565b90506109143382611467565b3373ffffffffffffffffffffffffffffffffffffffff167f8ef92257fbc070823c8bb4051ff3a58b831946d893fbb1bfd9bc77b87ff77d098260405161095a919061222d565b60405180910390a2600191505090565b61097b610975611382565b82611641565b6109ba576040517f08c379a00000000000000000000000000000000000000000000000000000000081526004016109b19061286a565b60405180910390fd5b6109c58383836116d6565b505050565b6000600c600085815260200190815260200160002060009054906101000a900460ff1615610a2d576040517f08c379a0000000000000000000000000000000000000000000000000000000008152600401610a24906128d6565b60405180910390fd5b6000610a388561193d565b604051602001610a489190612932565b60405160208183030381529060405290506000610a6484611a9e565b905060006040518060400160405280602081526020017f19457468657265756d205369676e6564204d6573736167653a0a303030303030815250905060008084519050603983019150620f423f811115610abd57600080fd5b600080620186a090505b60008114610b635760008184610add91906129a7565b90506000811415610b07576000831415610b0657600a82610afe91906129a7565b915050610ac7565b5b8280610b12906129d8565b9350508181610b219190612a21565b84610b2c9190612a7b565b9350600a82610b3b91906129a7565b9150603081610b4a9190612aaf565b90508480610b57906129d8565b95505080855350610ac7565b6000821415610b7557601b9150610b85565b601a82610b829190612aaf565b91505b81855260008588604051602001610b9d929190612b05565b604051602081830303815290604052805190602001209050600181886040015189600001518a6020015160405160008152602001604052604051610be49493929190612b5e565b6020604051602081039080840390855afa158015610c06573d6000803e3d6000fd5b5050506020604051035173ffffffffffffffffffffffffffffffffffffffff168b73ffffffffffffffffffffffffffffffffffffffff1614610c7d576040517f08c379a0000000000000000000000000000000000000000000000000000000008152600401610c7490612bef565b60405180910390fd5b6001600c60008e815260200190815260200160002060006101000a81548160ff0219169083151502179055508b8b73ffffffffffffffffffffffffffffffffffffffff167f04c83e3a48b8728bb2e4bf1933322209bd98584759a94f66ef94275e0bf770de60405160405180910390a36001985050505050505050509392505050565b600b60009054906101000a900473ffffffffffffffffffffffffffffffffffffffff1673ffffffffffffffffffffffffffffffffffffffff163373ffffffffffffffffffffffffffffffffffffffff1614610d90576040517f08c379a0000000000000000000000000000000000000000000000000000000008152600401610d8790612c5b565b60405180910390fd5b60003373ffffffffffffffffffffffffffffffffffffffff1647604051610db690612cac565b60006040518083038185875af1925050503d8060008114610df3576040519150601f19603f3d011682016040523d82523d6000602084013e610df8565b606091505b5050905080610e3c576040517f08c379a0000000000000000000000000000000000000000000000000000000008152600401610e3390612d0d565b60405180910390fd5b50565b610e5a83838360405180602001604052806000815250611143565b505050565b60078054610e6c906125ca565b80601f0160208091040260200160405190810160405280929190818152602001828054610e98906125ca565b8015610ee55780601f10610eba57610100808354040283529160200191610ee5565b820191906000526020600020905b815481529060010190602001808311610ec857829003601f168201915b505050505081565b6000610ef96006611443565b600954610f069190612a7b565b905090565b6000806002600084815260200190815260200160002060009054906101000a900473ffffffffffffffffffffffffffffffffffffffff169050600073ffffffffffffffffffffffffffffffffffffffff168173ffffffffffffffffffffffffffffffffffffffff161415610fb4576040517f08c379a0000000000000000000000000000000000000000000000000000000008152600401610fab90612d79565b60405180910390fd5b80915050919050565b60008073ffffffffffffffffffffffffffffffffffffffff168273ffffffffffffffffffffffffffffffffffffffff16141561102e576040517f08c379a000000000000000000000000000000000000000000000000000000000815260040161102590612e0b565b60405180910390fd5b600360008373ffffffffffffffffffffffffffffffffffffffff1673ffffffffffffffffffffffffffffffffffffffff168152602001908152602001600020549050919050565b600b60009054906101000a900473ffffffffffffffffffffffffffffffffffffffff1681565b6060600180546110aa906125ca565b80601f01602080910402602001604051908101604052809291908181526020018280546110d6906125ca565b80156111235780601f106110f857610100808354040283529160200191611123565b820191906000526020600020905b81548152906001019060200180831161110657829003601f168201915b5050505050905090565b61113f611138611382565b8383611b2f565b5050565b61115461114e611382565b83611641565b611193576040517f08c379a000000000000000000000000000000000000000000000000000000000815260040161118a9061286a565b60405180910390fd5b61119f84848484611c9c565b50505050565b60085481565b60606111b682611337565b60006111c0611cf8565b905060008151116111e0576040518060200160405280600081525061120b565b806111ea8461193d565b6040516020016111fb929190612b05565b6040516020818303038152906040525b915050919050565b60095481565b600c6020528060005260406000206000915054906101000a900460ff1681565b6000600560008473ffffffffffffffffffffffffffffffffffffffff1673ffffffffffffffffffffffffffffffffffffffff16815260200190815260200160002060008373ffffffffffffffffffffffffffffffffffffffff1673ffffffffffffffffffffffffffffffffffffffff16815260200190815260200160002060009054906101000a900460ff16905092915050565b60007f01ffc9a7000000000000000000000000000000000000000000000000000000007bffffffffffffffffffffffffffffffffffffffffffffffffffffffff1916827bffffffffffffffffffffffffffffffffffffffffffffffffffffffff1916149050919050565b61134081611d0f565b61137f576040517f08c379a000000000000000000000000000000000000000000000000000000000815260040161137690612d79565b60405180910390fd5b50565b600033905090565b816004600083815260200190815260200160002060006101000a81548173ffffffffffffffffffffffffffffffffffffffff021916908373ffffffffffffffffffffffffffffffffffffffff160217905550808273ffffffffffffffffffffffffffffffffffffffff166113fd83610f0b565b73ffffffffffffffffffffffffffffffffffffffff167f8c5be1e5ebec7d5bd14f71427d1e84f3dd0314c0f7b2291e5b200ac8c7c3b92560405160405180910390a45050565b600081600001549050919050565b6001816000016000828254019250508190555050565b600073ffffffffffffffffffffffffffffffffffffffff168273ffffffffffffffffffffffffffffffffffffffff1614156114d7576040517f08c379a00000000000000000000000000000000000000000000000000000000081526004016114ce90612e77565b60405180910390fd5b6114e081611d0f565b15611520576040517f08c379a000000000000000000000000000000000000000000000000000000000815260040161151790612ee3565b60405180910390fd5b61152c60008383611d7b565b6001600360008473ffffffffffffffffffffffffffffffffffffffff1673ffffffffffffffffffffffffffffffffffffffff168152602001908152602001600020600082825461157c9190612aaf565b92505081905550816002600083815260200190815260200160002060006101000a81548173ffffffffffffffffffffffffffffffffffffffff021916908373ffffffffffffffffffffffffffffffffffffffff160217905550808273ffffffffffffffffffffffffffffffffffffffff16600073ffffffffffffffffffffffffffffffffffffffff167fddf252ad1be2c89b69c2b068fc378daa952ba7f163c4a11628f55a4df523b3ef60405160405180910390a461163d60008383611d80565b5050565b60008061164d83610f0b565b90508073ffffffffffffffffffffffffffffffffffffffff168473ffffffffffffffffffffffffffffffffffffffff16148061168f575061168e8185611239565b5b806116cd57508373ffffffffffffffffffffffffffffffffffffffff166116b5846106fb565b73ffffffffffffffffffffffffffffffffffffffff16145b91505092915050565b8273ffffffffffffffffffffffffffffffffffffffff166116f682610f0b565b73ffffffffffffffffffffffffffffffffffffffff161461174c576040517f08c379a000000000000000000000000000000000000000000000000000000000815260040161174390612f75565b60405180910390fd5b600073ffffffffffffffffffffffffffffffffffffffff168273ffffffffffffffffffffffffffffffffffffffff1614156117bc576040517f08c379a00000000000000000000000000000000000000000000000000000000081526004016117b390613007565b60405180910390fd5b6117c7838383611d7b565b6117d260008261138a565b6001600360008573ffffffffffffffffffffffffffffffffffffffff1673ffffffffffffffffffffffffffffffffffffffff16815260200190815260200160002060008282546118229190612a7b565b925050819055506001600360008473ffffffffffffffffffffffffffffffffffffffff1673ffffffffffffffffffffffffffffffffffffffff16815260200190815260200160002060008282546118799190612aaf565b92505081905550816002600083815260200190815260200160002060006101000a81548173ffffffffffffffffffffffffffffffffffffffff021916908373ffffffffffffffffffffffffffffffffffffffff160217905550808273ffffffffffffffffffffffffffffffffffffffff168473ffffffffffffffffffffffffffffffffffffffff167fddf252ad1be2c89b69c2b068fc378daa952ba7f163c4a11628f55a4df523b3ef60405160405180910390a4611938838383611d80565b505050565b60606000821415611985576040518060400160405280600181526020017f30000000000000000000000000000000000000000000000000000000000000008152509050611a99565b600082905060005b600082146119b75780806119a0906129d8565b915050600a826119b091906129a7565b915061198d565b60008167ffffffffffffffff8111156119d3576119d26122a5565b5b6040519080825280601f01601f191660200182016040528015611a055781602001600182028036833780820191505090505b5090505b60008514611a9257600182611a1e9190612a7b565b9150600a85611a2d9190613027565b6030611a399190612aaf565b60f81b818381518110611a4f57611a4e613058565b5b60200101907effffffffffffffffffffffffffffffffffffffffffffffffffffffffffffff1916908160001a905350600a85611a8b91906129a7565b9450611a09565b8093505050505b919050565b611aa6611f3f565b6041825114611aea576040517f08c379a0000000000000000000000000000000000000000000000000000000008152600401611ae1906130d3565b60405180910390fd5b60008060006020850151925060408501519150606085015160001a905060405180606001604052808481526020018381526020018260ff168152509350505050919050565b8173ffffffffffffffffffffffffffffffffffffffff168373ffffffffffffffffffffffffffffffffffffffff161415611b9e576040517f08c379a0000000000000000000000000000000000000000000000000000000008152600401611b959061313f565b60405180910390fd5b80600560008573ffffffffffffffffffffffffffffffffffffffff1673ffffffffffffffffffffffffffffffffffffffff16815260200190815260200160002060008473ffffffffffffffffffffffffffffffffffffffff1673ffffffffffffffffffffffffffffffffffffffff16815260200190815260200160002060006101000a81548160ff0219169083151502179055508173ffffffffffffffffffffffffffffffffffffffff168373ffffffffffffffffffffffffffffffffffffffff167f17307eab39ab6107e8899845ad3d59bd9653f200f220920489ca2b5937696c3183604051611c8f919061201d565b60405180910390a3505050565b611ca78484846116d6565b611cb384848484611d85565b611cf2576040517f08c379a0000000000000000000000000000000000000000000000000000000008152600401611ce9906131d1565b60405180910390fd5b50505050565b606060405180602001604052806000815250905090565b60008073ffffffffffffffffffffffffffffffffffffffff166002600084815260200190815260200160002060009054906101000a900473ffffffffffffffffffffffffffffffffffffffff1673ffffffffffffffffffffffffffffffffffffffff1614159050919050565b505050565b505050565b6000611da68473ffffffffffffffffffffffffffffffffffffffff16611f1c565b15611f0f578373ffffffffffffffffffffffffffffffffffffffff1663150b7a02611dcf611382565b8786866040518563ffffffff1660e01b8152600401611df19493929190613246565b602060405180830381600087803b158015611e0b57600080fd5b505af1925050508015611e3c57506040513d601f19601f82011682018060405250810190611e3991906132a7565b60015b611ebf573d8060008114611e6c576040519150601f19603f3d011682016040523d82523d6000602084013e611e71565b606091505b50600081511415611eb7576040517f08c379a0000000000000000000000000000000000000000000000000000000008152600401611eae906131d1565b60405180910390fd5b805181602001fd5b63150b7a0260e01b7bffffffffffffffffffffffffffffffffffffffffffffffffffffffff1916817bffffffffffffffffffffffffffffffffffffffffffffffffffffffff191614915050611f14565b600190505b949350505050565b6000808273ffffffffffffffffffffffffffffffffffffffff163b119050919050565b60405180606001604052806000801916815260200160008019168152602001600060ff1681525090565b6000604051905090565b600080fd5b600080fd5b60007fffffffff0000000000000000000000000000000000000000000000000000000082169050919050565b611fb281611f7d565b8114611fbd57600080fd5b50565b600081359050611fcf81611fa9565b92915050565b600060208284031215611feb57611fea611f73565b5b6000611ff984828501611fc0565b91505092915050565b60008115159050919050565b61201781612002565b82525050565b6000602082019050612032600083018461200e565b92915050565b600081519050919050565b600082825260208201905092915050565b60005b83811015612072578082015181840152602081019050612057565b83811115612081576000848401525b50505050565b6000601f19601f8301169050919050565b60006120a382612038565b6120ad8185612043565b93506120bd818560208601612054565b6120c681612087565b840191505092915050565b600060208201905081810360008301526120eb8184612098565b905092915050565b6000819050919050565b612106816120f3565b811461211157600080fd5b50565b600081359050612123816120fd565b92915050565b60006020828403121561213f5761213e611f73565b5b600061214d84828501612114565b91505092915050565b600073ffffffffffffffffffffffffffffffffffffffff82169050919050565b600061218182612156565b9050919050565b61219181612176565b82525050565b60006020820190506121ac6000830184612188565b92915050565b6121bb81612176565b81146121c657600080fd5b50565b6000813590506121d8816121b2565b92915050565b600080604083850312156121f5576121f4611f73565b5b6000612203858286016121c9565b925050602061221485828601612114565b9150509250929050565b612227816120f3565b82525050565b6000602082019050612242600083018461221e565b92915050565b60008060006060848603121561226157612260611f73565b5b600061226f868287016121c9565b9350506020612280868287016121c9565b925050604061229186828701612114565b9150509250925092565b600080fd5b600080fd5b7f4e487b7100000000000000000000000000000000000000000000000000000000600052604160045260246000fd5b6122dd82612087565b810181811067ffffffffffffffff821117156122fc576122fb6122a5565b5b80604052505050565b600061230f611f69565b905061231b82826122d4565b919050565b600067ffffffffffffffff82111561233b5761233a6122a5565b5b61234482612087565b9050602081019050919050565b82818337600083830152505050565b600061237361236e84612320565b612305565b90508281526020810184848401111561238f5761238e6122a0565b5b61239a848285612351565b509392505050565b600082601f8301126123b7576123b661229b565b5b81356123c7848260208601612360565b91505092915050565b6000806000606084860312156123e9576123e8611f73565b5b60006123f786828701612114565b9350506020612408868287016121c9565b925050604084013567ffffffffffffffff81111561242957612428611f78565b5b612435868287016123a2565b9150509250925092565b60006020828403121561245557612454611f73565b5b6000612463848285016121c9565b91505092915050565b61247581612002565b811461248057600080fd5b50565b6000813590506124928161246c565b92915050565b600080604083850312156124af576124ae611f73565b5b60006124bd858286016121c9565b92505060206124ce85828601612483565b9150509250929050565b600080600080608085870312156124f2576124f1611f73565b5b6000612500878288016121c9565b9450506020612511878288016121c9565b935050604061252287828801612114565b925050606085013567ffffffffffffffff81111561254357612542611f78565b5b61254f878288016123a2565b91505092959194509250565b6000806040838503121561257257612571611f73565b5b6000612580858286016121c9565b9250506020612591858286016121c9565b9150509250929050565b7f4e487b7100000000000000000000000000000000000000000000000000000000600052602260045260246000fd5b600060028204905060018216806125e257607f821691505b602082108114156125f6576125f561259b565b5b50919050565b7f4552433732313a20617070726f76616c20746f2063757272656e74206f776e6560008201527f7200000000000000000000000000000000000000000000000000000000000000602082015250565b6000612658602183612043565b9150612663826125fc565b604082019050919050565b600060208201905081810360008301526126878161264b565b9050919050565b7f4552433732313a20617070726f76652063616c6c6572206973206e6f7420746f60008201527f6b656e206f776e6572206e6f7220617070726f76656420666f7220616c6c0000602082015250565b60006126ea603e83612043565b91506126f58261268e565b604082019050919050565b60006020820190508181036000830152612719816126dd565b9050919050565b7f736f6c64206f7574000000000000000000000000000000000000000000000000600082015250565b6000612756600883612043565b915061276182612720565b602082019050919050565b6000602082019050818103600083015261278581612749565b9050919050565b7f696e636f727265637420616d6f756e7420706169640000000000000000000000600082015250565b60006127c2601583612043565b91506127cd8261278c565b602082019050919050565b600060208201905081810360008301526127f1816127b5565b9050919050565b7f4552433732313a2063616c6c6572206973206e6f7420746f6b656e206f776e6560008201527f72206e6f7220617070726f766564000000000000000000000000000000000000602082015250565b6000612854602e83612043565b915061285f826127f8565b604082019050919050565b6000602082019050818103600083015261288381612847565b9050919050565b7f7469636b657420616c72656164792072656465656d6564000000000000000000600082015250565b60006128c0601783612043565b91506128cb8261288a565b602082019050919050565b600060208201905081810360008301526128ef816128b3565b9050919050565b600081905092915050565b600061290c82612038565b61291681856128f6565b9350612926818560208601612054565b80840191505092915050565b600061293e8284612901565b915081905092915050565b7f4e487b7100000000000000000000000000000000000000000000000000000000600052601260045260246000fd5b7f4e487b7100000000000000000000000000000000000000000000000000000000600052601160045260246000fd5b60006129b2826120f3565b91506129bd836120f3565b9250826129cd576129cc612949565b5b828204905092915050565b60006129e3826120f3565b91507fffffffffffffffffffffffffffffffffffffffffffffffffffffffffffffffff821415612a1657612a15612978565b5b600182019050919050565b6000612a2c826120f3565b9150612a37836120f3565b9250817fffffffffffffffffffffffffffffffffffffffffffffffffffffffffffffffff0483118215151615612a7057612a6f612978565b5b828202905092915050565b6000612a86826120f3565b9150612a91836120f3565b925082821015612aa457612aa3612978565b5b828203905092915050565b6000612aba826120f3565b9150612ac5836120f3565b9250827fffffffffffffffffffffffffffffffffffffffffffffffffffffffffffffffff03821115612afa57612af9612978565b5b828201905092915050565b6000612b118285612901565b9150612b1d8284612901565b91508190509392505050565b6000819050919050565b612b3c81612b29565b82525050565b600060ff82169050919050565b612b5881612b42565b82525050565b6000608082019050612b736000830187612b33565b612b806020830186612b4f565b612b8d6040830185612b33565b612b9a6060830184612b33565b95945050505050565b7f696e76616c6964207469636b6574000000000000000000000000000000000000600082015250565b6000612bd9600e83612043565b9150612be482612ba3565b602082019050919050565b60006020820190508181036000830152612c0881612bcc565b9050919050565b7f6d757374206265206f776e657200000000000000000000000000000000000000600082015250565b6000612c45600d83612043565b9150612c5082612c0f565b602082019050919050565b60006020820190508181036000830152612c7481612c38565b9050919050565b600081905092915050565b50565b6000612c96600083612c7b565b9150612ca182612c86565b600082019050919050565b6000612cb782612c89565b9150819050919050565b7f6661696c656420746f2077697468647261770000000000000000000000000000600082015250565b6000612cf7601283612043565b9150612d0282612cc1565b602082019050919050565b60006020820190508181036000830152612d2681612cea565b9050919050565b7f4552433732313a20696e76616c696420746f6b656e2049440000000000000000600082015250565b6000612d63601883612043565b9150612d6e82612d2d565b602082019050919050565b60006020820190508181036000830152612d9281612d56565b9050919050565b7f4552433732313a2061646472657373207a65726f206973206e6f74206120766160008201527f6c6964206f776e65720000000000000000000000000000000000000000000000602082015250565b6000612df5602983612043565b9150612e0082612d99565b604082019050919050565b60006020820190508181036000830152612e2481612de8565b9050919050565b7f4552433732313a206d696e7420746f20746865207a65726f2061646472657373600082015250565b6000612e61602083612043565b9150612e6c82612e2b565b602082019050919050565b60006020820190508181036000830152612e9081612e54565b9050919050565b7f4552433732313a20746f6b656e20616c7265616479206d696e74656400000000600082015250565b6000612ecd601c83612043565b9150612ed882612e97565b602082019050919050565b60006020820190508181036000830152612efc81612ec0565b9050919050565b7f4552433732313a207472616e736665722066726f6d20696e636f72726563742060008201527f6f776e6572000000000000000000000000000000000000000000000000000000602082015250565b6000612f5f602583612043565b9150612f6a82612f03565b604082019050919050565b60006020820190508181036000830152612f8e81612f52565b9050919050565b7f4552433732313a207472616e7366657220746f20746865207a65726f2061646460008201527f7265737300000000000000000000000000000000000000000000000000000000602082015250565b6000612ff1602483612043565b9150612ffc82612f95565b604082019050919050565b6000602082019050818103600083015261302081612fe4565b9050919050565b6000613032826120f3565b915061303d836120f3565b92508261304d5761304c612949565b5b828206905092915050565b7f4e487b7100000000000000000000000000000000000000000000000000000000600052603260045260246000fd5b7f696e76616c6964207369676e6174757265206c656e6774680000000000000000600082015250565b60006130bd601883612043565b91506130c882613087565b602082019050919050565b600060208201905081810360008301526130ec816130b0565b9050919050565b7f4552433732313a20617070726f766520746f2063616c6c657200000000000000600082015250565b6000613129601983612043565b9150613134826130f3565b602082019050919050565b600060208201905081810360008301526131588161311c565b9050919050565b7f4552433732313a207472616e7366657220746f206e6f6e20455243373231526560008201527f63656976657220696d706c656d656e7465720000000000000000000000000000602082015250565b60006131bb603283612043565b91506131c68261315f565b604082019050919050565b600060208201905081810360008301526131ea816131ae565b9050919050565b600081519050919050565b600082825260208201905092915050565b6000613218826131f1565b61322281856131fc565b9350613232818560208601612054565b61323b81612087565b840191505092915050565b600060808201905061325b6000830187612188565b6132686020830186612188565b613275604083018561221e565b8181036060830152613287818461320d565b905095945050505050565b6000815190506132a181611fa9565b92915050565b6000602082840312156132bd576132bc611f73565b5b60006132cb84828501613292565b9150509291505056fea2646970667358221220310433400e9f6d63ce8c75f8531efddab6e2b0c7bfeac83a9886392da03e39e964736f6c63430008090033",
    "linkReferences": {},
    "deployedLinkReferences": {}
}