{
    "_format": "hh-sol-artifact-1",
    "contractName": "EventContractFactory",
    "sourceName": "contracts/EventContractFactory.sol",
    "abi": [
        {
            "inputs": [
                {
                    "internalType": "uint256",
                    "name": "_fee",
                    "type": "uint256"
                }
            ],
            "stateMutability": "nonpayable",
            "type": "constructor"
        },
        {
            "anonymous": false,
            "inputs": [
                {
                    "indexed": true,
                    "internalType": "address",
                    "name": "owner",
                    "type": "address"
                },
                {
                    "indexed": false,
                    "internalType": "address",
                    "name": "contractAddress",
                    "type": "address"
                },
                {
                    "indexed": false,
                    "internalType": "string",
                    "name": "name",
                    "type": "string"
                }
            ],
            "name": "EventCreation",
            "type": "event"
        },
        {
            "inputs": [],
            "name": "admin",
            "outputs": [
                {
                    "internalType": "address",
                    "name": "",
                    "type": "address"
                }
            ],
            "stateMutability": "view",
            "type": "function"
        },
        {
            "inputs": [
                {
                    "internalType": "string",
                    "name": "_eventName",
                    "type": "string"
                },
                {
                    "internalType": "string",
                    "name": "_location",
                    "type": "string"
                },
                {
                    "internalType": "uint256",
                    "name": "_dateOfEvent",
                    "type": "uint256"
                },
                {
                    "internalType": "uint256",
                    "name": "_maxNumOfTickets",
                    "type": "uint256"
                },
                {
                    "internalType": "uint256",
                    "name": "_ticketPrice",
                    "type": "uint256"
                }
            ],
            "name": "createEvent",
            "outputs": [],
            "stateMutability": "nonpayable",
            "type": "function"
        },
        {
            "inputs": [
                {
                    "internalType": "address",
                    "name": "",
                    "type": "address"
                }
            ],
            "name": "events",
            "outputs": [
                {
                    "internalType": "bool",
                    "name": "",
                    "type": "bool"
                }
            ],
            "stateMutability": "view",
            "type": "function"
        },
        {
            "inputs": [],
            "name": "fee",
            "outputs": [
                {
                    "internalType": "uint256",
                    "name": "",
                    "type": "uint256"
                }
            ],
            "stateMutability": "view",
            "type": "function"
        },
        {
            "inputs": [],
            "name": "withdraw",
            "outputs": [],
            "stateMutability": "nonpayable",
            "type": "function"
        }
    ],
    "bytecode": "0x608060405234801561001057600080fd5b50604051613f9c380380613f9c833981810160405281019061003291906100ba565b80600281905550336000806101000a81548173ffffffffffffffffffffffffffffffffffffffff021916908373ffffffffffffffffffffffffffffffffffffffff160217905550506100e7565b600080fd5b6000819050919050565b61009781610084565b81146100a257600080fd5b50565b6000815190506100b48161008e565b92915050565b6000602082840312156100d0576100cf61007f565b5b60006100de848285016100a5565b91505092915050565b613ea6806100f66000396000f3fe60806040523480156200001157600080fd5b50600436106200005e5760003560e01c80633194bfe114620000635780633c2fc56c14620000995780633ccfd60b14620000b9578063ddca3f4314620000c5578063f851a44014620000e7575b600080fd5b6200008160048036038101906200007b9190620003ad565b62000109565b604051620000909190620003fc565b60405180910390f35b620000b76004803603810190620000b19190620005b6565b62000129565b005b620000c362000221565b005b620000cf620002fc565b604051620000de91906200068d565b60405180910390f35b620000f162000302565b604051620001009190620006bb565b60405180910390f35b60016020528060005260406000206000915054906101000a900460ff1681565b60008584868585336040516200013f9062000326565b62000150969594939291906200076b565b604051809103906000f0801580156200016d573d6000803e3d6000fd5b50905060018060008373ffffffffffffffffffffffffffffffffffffffff1673ffffffffffffffffffffffffffffffffffffffff16815260200190815260200160002060006101000a81548160ff0219169083151502179055503373ffffffffffffffffffffffffffffffffffffffff167f9bdf40553c65b16d96044607eeb41b2d6cfb159a0ab278b3e0043af040952c4e828860405162000211929190620007e6565b60405180910390a2505050505050565b60008054906101000a900473ffffffffffffffffffffffffffffffffffffffff1673ffffffffffffffffffffffffffffffffffffffff163373ffffffffffffffffffffffffffffffffffffffff1614620002b2576040517f08c379a0000000000000000000000000000000000000000000000000000000008152600401620002a9906200086a565b60405180910390fd5b3373ffffffffffffffffffffffffffffffffffffffff166108fc479081150290604051600060405180830381858888f19350505050158015620002f9573d6000803e3d6000fd5b50565b60025481565b60008054906101000a900473ffffffffffffffffffffffffffffffffffffffff1681565b6135e4806200088d83390190565b6000604051905090565b600080fd5b600080fd5b600073ffffffffffffffffffffffffffffffffffffffff82169050919050565b6000620003758262000348565b9050919050565b620003878162000368565b81146200039357600080fd5b50565b600081359050620003a7816200037c565b92915050565b600060208284031215620003c657620003c56200033e565b5b6000620003d68482850162000396565b91505092915050565b60008115159050919050565b620003f681620003df565b82525050565b6000602082019050620004136000830184620003eb565b92915050565b600080fd5b600080fd5b6000601f19601f8301169050919050565b7f4e487b7100000000000000000000000000000000000000000000000000000000600052604160045260246000fd5b6200046e8262000423565b810181811067ffffffffffffffff8211171562000490576200048f62000434565b5b80604052505050565b6000620004a562000334565b9050620004b3828262000463565b919050565b600067ffffffffffffffff821115620004d657620004d562000434565b5b620004e18262000423565b9050602081019050919050565b82818337600083830152505050565b6000620005146200050e84620004b8565b62000499565b9050828152602081018484840111156200053357620005326200041e565b5b62000540848285620004ee565b509392505050565b600082601f83011262000560576200055f62000419565b5b813562000572848260208601620004fd565b91505092915050565b6000819050919050565b62000590816200057b565b81146200059c57600080fd5b50565b600081359050620005b08162000585565b92915050565b600080600080600060a08688031215620005d557620005d46200033e565b5b600086013567ffffffffffffffff811115620005f657620005f562000343565b5b620006048882890162000548565b955050602086013567ffffffffffffffff81111562000628576200062762000343565b5b620006368882890162000548565b945050604062000649888289016200059f565b93505060606200065c888289016200059f565b92505060806200066f888289016200059f565b9150509295509295909350565b62000687816200057b565b82525050565b6000602082019050620006a460008301846200067c565b92915050565b620006b58162000368565b82525050565b6000602082019050620006d26000830184620006aa565b92915050565b600081519050919050565b600082825260208201905092915050565b60005b8381101562000714578082015181840152602081019050620006f7565b8381111562000724576000848401525b50505050565b60006200073782620006d8565b620007438185620006e3565b935062000755818560208601620006f4565b620007608162000423565b840191505092915050565b600060c08201905081810360008301526200078781896200072a565b90506200079860208301886200067c565b8181036040830152620007ac81876200072a565b9050620007bd60608301866200067c565b620007cc60808301856200067c565b620007db60a0830184620006aa565b979650505050505050565b6000604082019050620007fd6000830185620006aa565b81810360208301526200081181846200072a565b90509392505050565b7f6d7573742062652061646d696e00000000000000000000000000000000000000600082015250565b600062000852600d83620006e3565b91506200085f826200081a565b602082019050919050565b60006020820190508181036000830152620008858162000843565b905091905056fe60806040523480156200001157600080fd5b50604051620035e4380380620035e483398181016040528101906200003791906200040a565b856040518060400160405280600481526020017f5449434b000000000000000000000000000000000000000000000000000000008152508160009080519060200190620000869291906200011d565b5080600190805190602001906200009f9291906200011d565b505050846008819055508360079080519060200190620000c19291906200011d565b508260098190555081600a8190555080600b60006101000a81548173ffffffffffffffffffffffffffffffffffffffff021916908373ffffffffffffffffffffffffffffffffffffffff16021790555050505050505062000549565b8280546200012b9062000513565b90600052602060002090601f0160209004810192826200014f57600085556200019b565b82601f106200016a57805160ff19168380011785556200019b565b828001600101855582156200019b579182015b828111156200019a5782518255916020019190600101906200017d565b5b509050620001aa9190620001ae565b5090565b5b80821115620001c9576000816000905550600101620001af565b5090565b6000604051905090565b600080fd5b600080fd5b600080fd5b600080fd5b6000601f19601f8301169050919050565b7f4e487b7100000000000000000000000000000000000000000000000000000000600052604160045260246000fd5b6200023682620001eb565b810181811067ffffffffffffffff82111715620002585762000257620001fc565b5b80604052505050565b60006200026d620001cd565b90506200027b82826200022b565b919050565b600067ffffffffffffffff8211156200029e576200029d620001fc565b5b620002a982620001eb565b9050602081019050919050565b60005b83811015620002d6578082015181840152602081019050620002b9565b83811115620002e6576000848401525b50505050565b600062000303620002fd8462000280565b62000261565b905082815260208101848484011115620003225762000321620001e6565b5b6200032f848285620002b6565b509392505050565b600082601f8301126200034f576200034e620001e1565b5b815162000361848260208601620002ec565b91505092915050565b6000819050919050565b6200037f816200036a565b81146200038b57600080fd5b50565b6000815190506200039f8162000374565b92915050565b600073ffffffffffffffffffffffffffffffffffffffff82169050919050565b6000620003d282620003a5565b9050919050565b620003e481620003c5565b8114620003f057600080fd5b50565b6000815190506200040481620003d9565b92915050565b60008060008060008060c087890312156200042a5762000429620001d7565b5b600087015167ffffffffffffffff8111156200044b576200044a620001dc565b5b6200045989828a0162000337565b96505060206200046c89828a016200038e565b955050604087015167ffffffffffffffff81111562000490576200048f620001dc565b5b6200049e89828a0162000337565b9450506060620004b189828a016200038e565b9350506080620004c489828a016200038e565b92505060a0620004d789828a01620003f3565b9150509295509295509295565b7f4e487b7100000000000000000000000000000000000000000000000000000000600052602260045260246000fd5b600060028204905060018216806200052c57607f821691505b60208210811415620005435762000542620004e4565b5b50919050565b61308b80620005596000396000f3fe6080604052600436106101355760003560e01c80636352211e116100ab578063b88d4fde1161006f578063b88d4fde1461042f578063ba46cfe914610458578063c87b56dd14610483578063c943c128146104c0578063e4adaf9b146104eb578063e985e9c51461052857610135565b80636352211e1461033657806370a08231146103735780638da5cb5b146103b057806395d89b41146103db578063a22cb4651461040657610135565b80631249c58b116100fd5780631249c58b1461023357806323b872dd1461025157806336f5db491461027a57806342842e0e146102b7578063516f279e146102e05780635d5048321461030b57610135565b806301ffc9a71461013a57806306fdde0314610177578063081812fc146101a2578063095ea7b3146101df5780631209b1f614610208575b600080fd5b34801561014657600080fd5b50610161600480360381019061015c9190611e74565b610565565b60405161016e9190611ebc565b60405180910390f35b34801561018357600080fd5b5061018c610647565b6040516101999190611f70565b60405180910390f35b3480156101ae57600080fd5b506101c960048036038101906101c49190611fc8565b6106d9565b6040516101d69190612036565b60405180910390f35b3480156101eb57600080fd5b506102066004803603810190610201919061207d565b61071f565b005b34801561021457600080fd5b5061021d610837565b60405161022a91906120cc565b60405180910390f35b61023b61083d565b6040516102489190611ebc565b60405180910390f35b34801561025d57600080fd5b50610278600480360381019061027391906120e7565b610948565b005b34801561028657600080fd5b506102a1600480360381019061029c919061226f565b6109a8565b6040516102ae9190611ebc565b60405180910390f35b3480156102c357600080fd5b506102de60048036038101906102d991906120e7565b610cde565b005b3480156102ec57600080fd5b506102f5610cfe565b6040516103029190611f70565b60405180910390f35b34801561031757600080fd5b50610320610d8c565b60405161032d91906120cc565b60405180910390f35b34801561034257600080fd5b5061035d60048036038101906103589190611fc8565b610daa565b60405161036a9190612036565b60405180910390f35b34801561037f57600080fd5b5061039a600480360381019061039591906122de565b610e5c565b6040516103a791906120cc565b60405180910390f35b3480156103bc57600080fd5b506103c5610f14565b6040516103d29190612036565b60405180910390f35b3480156103e757600080fd5b506103f0610f3a565b6040516103fd9190611f70565b60405180910390f35b34801561041257600080fd5b5061042d60048036038101906104289190612337565b610fcc565b005b34801561043b57600080fd5b5061045660048036038101906104519190612377565b610fe2565b005b34801561046457600080fd5b5061046d611044565b60405161047a91906120cc565b60405180910390f35b34801561048f57600080fd5b506104aa60048036038101906104a59190611fc8565b61104a565b6040516104b79190611f70565b60405180910390f35b3480156104cc57600080fd5b506104d56110b2565b6040516104e291906120cc565b60405180910390f35b3480156104f757600080fd5b50610512600480360381019061050d9190611fc8565b6110b8565b60405161051f9190611ebc565b60405180910390f35b34801561053457600080fd5b5061054f600480360381019061054a91906123fa565b6110d8565b60405161055c9190611ebc565b60405180910390f35b60007f80ac58cd000000000000000000000000000000000000000000000000000000007bffffffffffffffffffffffffffffffffffffffffffffffffffffffff1916827bffffffffffffffffffffffffffffffffffffffffffffffffffffffff1916148061063057507f5b5e139f000000000000000000000000000000000000000000000000000000007bffffffffffffffffffffffffffffffffffffffffffffffffffffffff1916827bffffffffffffffffffffffffffffffffffffffffffffffffffffffff1916145b80610640575061063f8261116c565b5b9050919050565b60606000805461065690612469565b80601f016020809104026020016040519081016040528092919081815260200182805461068290612469565b80156106cf5780601f106106a4576101008083540402835291602001916106cf565b820191906000526020600020905b8154815290600101906020018083116106b257829003601f168201915b5050505050905090565b60006106e4826111d6565b6004600083815260200190815260200160002060009054906101000a900473ffffffffffffffffffffffffffffffffffffffff169050919050565b600061072a82610daa565b90508073ffffffffffffffffffffffffffffffffffffffff168373ffffffffffffffffffffffffffffffffffffffff16141561079b576040517f08c379a00000000000000000000000000000000000000000000000000000000081526004016107929061250d565b60405180910390fd5b8073ffffffffffffffffffffffffffffffffffffffff166107ba611221565b73ffffffffffffffffffffffffffffffffffffffff1614806107e957506107e8816107e3611221565b6110d8565b5b610828576040517f08c379a000000000000000000000000000000000000000000000000000000000815260040161081f9061259f565b60405180910390fd5b6108328383611229565b505050565b600a5481565b600060095461084c60066112e2565b1061088c576040517f08c379a00000000000000000000000000000000000000000000000000000000081526004016108839061260b565b60405180910390fd5b600a5434146108d0576040517f08c379a00000000000000000000000000000000000000000000000000000000081526004016108c790612677565b60405180910390fd5b6108da60066112f0565b60006108e660066112e2565b90506108f23382611306565b3373ffffffffffffffffffffffffffffffffffffffff167f8ef92257fbc070823c8bb4051ff3a58b831946d893fbb1bfd9bc77b87ff77d098260405161093891906120cc565b60405180910390a2600191505090565b610959610953611221565b826114e0565b610998576040517f08c379a000000000000000000000000000000000000000000000000000000000815260040161098f90612709565b60405180910390fd5b6109a3838383611575565b505050565b6000600c600085815260200190815260200160002060009054906101000a900460ff1615610a0b576040517f08c379a0000000000000000000000000000000000000000000000000000000008152600401610a0290612775565b60405180910390fd5b6000610a16856117dc565b604051602001610a2691906127d1565b60405160208183030381529060405290506000610a428461193d565b905060006040518060400160405280602081526020017f19457468657265756d205369676e6564204d6573736167653a0a303030303030815250905060008084519050603983019150620f423f811115610a9b57600080fd5b600080620186a090505b60008114610b415760008184610abb9190612846565b90506000811415610ae5576000831415610ae457600a82610adc9190612846565b915050610aa5565b5b8280610af090612877565b9350508181610aff91906128c0565b84610b0a919061291a565b9350600a82610b199190612846565b9150603081610b28919061294e565b90508480610b3590612877565b95505080855350610aa5565b6000821415610b5357601b9150610b63565b601a82610b60919061294e565b91505b81855260008588604051602001610b7b9291906129a4565b604051602081830303815290604052805190602001209050600181886040015189600001518a6020015160405160008152602001604052604051610bc294939291906129fd565b6020604051602081039080840390855afa158015610be4573d6000803e3d6000fd5b5050506020604051035173ffffffffffffffffffffffffffffffffffffffff168b73ffffffffffffffffffffffffffffffffffffffff1614610c5b576040517f08c379a0000000000000000000000000000000000000000000000000000000008152600401610c5290612a8e565b60405180910390fd5b6001600c60008e815260200190815260200160002060006101000a81548160ff0219169083151502179055508b8b73ffffffffffffffffffffffffffffffffffffffff167f04c83e3a48b8728bb2e4bf1933322209bd98584759a94f66ef94275e0bf770de60405160405180910390a36001985050505050505050509392505050565b610cf983838360405180602001604052806000815250610fe2565b505050565b60078054610d0b90612469565b80601f0160208091040260200160405190810160405280929190818152602001828054610d3790612469565b8015610d845780601f10610d5957610100808354040283529160200191610d84565b820191906000526020600020905b815481529060010190602001808311610d6757829003601f168201915b505050505081565b6000610d9860066112e2565b600954610da5919061291a565b905090565b6000806002600084815260200190815260200160002060009054906101000a900473ffffffffffffffffffffffffffffffffffffffff169050600073ffffffffffffffffffffffffffffffffffffffff168173ffffffffffffffffffffffffffffffffffffffff161415610e53576040517f08c379a0000000000000000000000000000000000000000000000000000000008152600401610e4a90612afa565b60405180910390fd5b80915050919050565b60008073ffffffffffffffffffffffffffffffffffffffff168273ffffffffffffffffffffffffffffffffffffffff161415610ecd576040517f08c379a0000000000000000000000000000000000000000000000000000000008152600401610ec490612b8c565b60405180910390fd5b600360008373ffffffffffffffffffffffffffffffffffffffff1673ffffffffffffffffffffffffffffffffffffffff168152602001908152602001600020549050919050565b600b60009054906101000a900473ffffffffffffffffffffffffffffffffffffffff1681565b606060018054610f4990612469565b80601f0160208091040260200160405190810160405280929190818152602001828054610f7590612469565b8015610fc25780601f10610f9757610100808354040283529160200191610fc2565b820191906000526020600020905b815481529060010190602001808311610fa557829003601f168201915b5050505050905090565b610fde610fd7611221565b83836119ce565b5050565b610ff3610fed611221565b836114e0565b611032576040517f08c379a000000000000000000000000000000000000000000000000000000000815260040161102990612709565b60405180910390fd5b61103e84848484611b3b565b50505050565b60085481565b6060611055826111d6565b600061105f611b97565b9050600081511161107f57604051806020016040528060008152506110aa565b80611089846117dc565b60405160200161109a9291906129a4565b6040516020818303038152906040525b915050919050565b60095481565b600c6020528060005260406000206000915054906101000a900460ff1681565b6000600560008473ffffffffffffffffffffffffffffffffffffffff1673ffffffffffffffffffffffffffffffffffffffff16815260200190815260200160002060008373ffffffffffffffffffffffffffffffffffffffff1673ffffffffffffffffffffffffffffffffffffffff16815260200190815260200160002060009054906101000a900460ff16905092915050565b60007f01ffc9a7000000000000000000000000000000000000000000000000000000007bffffffffffffffffffffffffffffffffffffffffffffffffffffffff1916827bffffffffffffffffffffffffffffffffffffffffffffffffffffffff1916149050919050565b6111df81611bae565b61121e576040517f08c379a000000000000000000000000000000000000000000000000000000000815260040161121590612afa565b60405180910390fd5b50565b600033905090565b816004600083815260200190815260200160002060006101000a81548173ffffffffffffffffffffffffffffffffffffffff021916908373ffffffffffffffffffffffffffffffffffffffff160217905550808273ffffffffffffffffffffffffffffffffffffffff1661129c83610daa565b73ffffffffffffffffffffffffffffffffffffffff167f8c5be1e5ebec7d5bd14f71427d1e84f3dd0314c0f7b2291e5b200ac8c7c3b92560405160405180910390a45050565b600081600001549050919050565b6001816000016000828254019250508190555050565b600073ffffffffffffffffffffffffffffffffffffffff168273ffffffffffffffffffffffffffffffffffffffff161415611376576040517f08c379a000000000000000000000000000000000000000000000000000000000815260040161136d90612bf8565b60405180910390fd5b61137f81611bae565b156113bf576040517f08c379a00000000000000000000000000000000000000000000000000000000081526004016113b690612c64565b60405180910390fd5b6113cb60008383611c1a565b6001600360008473ffffffffffffffffffffffffffffffffffffffff1673ffffffffffffffffffffffffffffffffffffffff168152602001908152602001600020600082825461141b919061294e565b92505081905550816002600083815260200190815260200160002060006101000a81548173ffffffffffffffffffffffffffffffffffffffff021916908373ffffffffffffffffffffffffffffffffffffffff160217905550808273ffffffffffffffffffffffffffffffffffffffff16600073ffffffffffffffffffffffffffffffffffffffff167fddf252ad1be2c89b69c2b068fc378daa952ba7f163c4a11628f55a4df523b3ef60405160405180910390a46114dc60008383611c1f565b5050565b6000806114ec83610daa565b90508073ffffffffffffffffffffffffffffffffffffffff168473ffffffffffffffffffffffffffffffffffffffff16148061152e575061152d81856110d8565b5b8061156c57508373ffffffffffffffffffffffffffffffffffffffff16611554846106d9565b73ffffffffffffffffffffffffffffffffffffffff16145b91505092915050565b8273ffffffffffffffffffffffffffffffffffffffff1661159582610daa565b73ffffffffffffffffffffffffffffffffffffffff16146115eb576040517f08c379a00000000000000000000000000000000000000000000000000000000081526004016115e290612cf6565b60405180910390fd5b600073ffffffffffffffffffffffffffffffffffffffff168273ffffffffffffffffffffffffffffffffffffffff16141561165b576040517f08c379a000000000000000000000000000000000000000000000000000000000815260040161165290612d88565b60405180910390fd5b611666838383611c1a565b611671600082611229565b6001600360008573ffffffffffffffffffffffffffffffffffffffff1673ffffffffffffffffffffffffffffffffffffffff16815260200190815260200160002060008282546116c1919061291a565b925050819055506001600360008473ffffffffffffffffffffffffffffffffffffffff1673ffffffffffffffffffffffffffffffffffffffff1681526020019081526020016000206000828254611718919061294e565b92505081905550816002600083815260200190815260200160002060006101000a81548173ffffffffffffffffffffffffffffffffffffffff021916908373ffffffffffffffffffffffffffffffffffffffff160217905550808273ffffffffffffffffffffffffffffffffffffffff168473ffffffffffffffffffffffffffffffffffffffff167fddf252ad1be2c89b69c2b068fc378daa952ba7f163c4a11628f55a4df523b3ef60405160405180910390a46117d7838383611c1f565b505050565b60606000821415611824576040518060400160405280600181526020017f30000000000000000000000000000000000000000000000000000000000000008152509050611938565b600082905060005b6000821461185657808061183f90612877565b915050600a8261184f9190612846565b915061182c565b60008167ffffffffffffffff81111561187257611871612144565b5b6040519080825280601f01601f1916602001820160405280156118a45781602001600182028036833780820191505090505b5090505b60008514611931576001826118bd919061291a565b9150600a856118cc9190612da8565b60306118d8919061294e565b60f81b8183815181106118ee576118ed612dd9565b5b60200101907effffffffffffffffffffffffffffffffffffffffffffffffffffffffffffff1916908160001a905350600a8561192a9190612846565b94506118a8565b8093505050505b919050565b611945611dde565b6041825114611989576040517f08c379a000000000000000000000000000000000000000000000000000000000815260040161198090612e54565b60405180910390fd5b60008060006020850151925060408501519150606085015160001a905060405180606001604052808481526020018381526020018260ff168152509350505050919050565b8173ffffffffffffffffffffffffffffffffffffffff168373ffffffffffffffffffffffffffffffffffffffff161415611a3d576040517f08c379a0000000000000000000000000000000000000000000000000000000008152600401611a3490612ec0565b60405180910390fd5b80600560008573ffffffffffffffffffffffffffffffffffffffff1673ffffffffffffffffffffffffffffffffffffffff16815260200190815260200160002060008473ffffffffffffffffffffffffffffffffffffffff1673ffffffffffffffffffffffffffffffffffffffff16815260200190815260200160002060006101000a81548160ff0219169083151502179055508173ffffffffffffffffffffffffffffffffffffffff168373ffffffffffffffffffffffffffffffffffffffff167f17307eab39ab6107e8899845ad3d59bd9653f200f220920489ca2b5937696c3183604051611b2e9190611ebc565b60405180910390a3505050565b611b46848484611575565b611b5284848484611c24565b611b91576040517f08c379a0000000000000000000000000000000000000000000000000000000008152600401611b8890612f52565b60405180910390fd5b50505050565b606060405180602001604052806000815250905090565b60008073ffffffffffffffffffffffffffffffffffffffff166002600084815260200190815260200160002060009054906101000a900473ffffffffffffffffffffffffffffffffffffffff1673ffffffffffffffffffffffffffffffffffffffff1614159050919050565b505050565b505050565b6000611c458473ffffffffffffffffffffffffffffffffffffffff16611dbb565b15611dae578373ffffffffffffffffffffffffffffffffffffffff1663150b7a02611c6e611221565b8786866040518563ffffffff1660e01b8152600401611c909493929190612fc7565b602060405180830381600087803b158015611caa57600080fd5b505af1925050508015611cdb57506040513d601f19601f82011682018060405250810190611cd89190613028565b60015b611d5e573d8060008114611d0b576040519150601f19603f3d011682016040523d82523d6000602084013e611d10565b606091505b50600081511415611d56576040517f08c379a0000000000000000000000000000000000000000000000000000000008152600401611d4d90612f52565b60405180910390fd5b805181602001fd5b63150b7a0260e01b7bffffffffffffffffffffffffffffffffffffffffffffffffffffffff1916817bffffffffffffffffffffffffffffffffffffffffffffffffffffffff191614915050611db3565b600190505b949350505050565b6000808273ffffffffffffffffffffffffffffffffffffffff163b119050919050565b60405180606001604052806000801916815260200160008019168152602001600060ff1681525090565b6000604051905090565b600080fd5b600080fd5b60007fffffffff0000000000000000000000000000000000000000000000000000000082169050919050565b611e5181611e1c565b8114611e5c57600080fd5b50565b600081359050611e6e81611e48565b92915050565b600060208284031215611e8a57611e89611e12565b5b6000611e9884828501611e5f565b91505092915050565b60008115159050919050565b611eb681611ea1565b82525050565b6000602082019050611ed16000830184611ead565b92915050565b600081519050919050565b600082825260208201905092915050565b60005b83811015611f11578082015181840152602081019050611ef6565b83811115611f20576000848401525b50505050565b6000601f19601f8301169050919050565b6000611f4282611ed7565b611f4c8185611ee2565b9350611f5c818560208601611ef3565b611f6581611f26565b840191505092915050565b60006020820190508181036000830152611f8a8184611f37565b905092915050565b6000819050919050565b611fa581611f92565b8114611fb057600080fd5b50565b600081359050611fc281611f9c565b92915050565b600060208284031215611fde57611fdd611e12565b5b6000611fec84828501611fb3565b91505092915050565b600073ffffffffffffffffffffffffffffffffffffffff82169050919050565b600061202082611ff5565b9050919050565b61203081612015565b82525050565b600060208201905061204b6000830184612027565b92915050565b61205a81612015565b811461206557600080fd5b50565b60008135905061207781612051565b92915050565b6000806040838503121561209457612093611e12565b5b60006120a285828601612068565b92505060206120b385828601611fb3565b9150509250929050565b6120c681611f92565b82525050565b60006020820190506120e160008301846120bd565b92915050565b600080600060608486031215612100576120ff611e12565b5b600061210e86828701612068565b935050602061211f86828701612068565b925050604061213086828701611fb3565b9150509250925092565b600080fd5b600080fd5b7f4e487b7100000000000000000000000000000000000000000000000000000000600052604160045260246000fd5b61217c82611f26565b810181811067ffffffffffffffff8211171561219b5761219a612144565b5b80604052505050565b60006121ae611e08565b90506121ba8282612173565b919050565b600067ffffffffffffffff8211156121da576121d9612144565b5b6121e382611f26565b9050602081019050919050565b82818337600083830152505050565b600061221261220d846121bf565b6121a4565b90508281526020810184848401111561222e5761222d61213f565b5b6122398482856121f0565b509392505050565b600082601f8301126122565761225561213a565b5b81356122668482602086016121ff565b91505092915050565b60008060006060848603121561228857612287611e12565b5b600061229686828701611fb3565b93505060206122a786828701612068565b925050604084013567ffffffffffffffff8111156122c8576122c7611e17565b5b6122d486828701612241565b9150509250925092565b6000602082840312156122f4576122f3611e12565b5b600061230284828501612068565b91505092915050565b61231481611ea1565b811461231f57600080fd5b50565b6000813590506123318161230b565b92915050565b6000806040838503121561234e5761234d611e12565b5b600061235c85828601612068565b925050602061236d85828601612322565b9150509250929050565b6000806000806080858703121561239157612390611e12565b5b600061239f87828801612068565b94505060206123b087828801612068565b93505060406123c187828801611fb3565b925050606085013567ffffffffffffffff8111156123e2576123e1611e17565b5b6123ee87828801612241565b91505092959194509250565b6000806040838503121561241157612410611e12565b5b600061241f85828601612068565b925050602061243085828601612068565b9150509250929050565b7f4e487b7100000000000000000000000000000000000000000000000000000000600052602260045260246000fd5b6000600282049050600182168061248157607f821691505b602082108114156124955761249461243a565b5b50919050565b7f4552433732313a20617070726f76616c20746f2063757272656e74206f776e6560008201527f7200000000000000000000000000000000000000000000000000000000000000602082015250565b60006124f7602183611ee2565b91506125028261249b565b604082019050919050565b60006020820190508181036000830152612526816124ea565b9050919050565b7f4552433732313a20617070726f76652063616c6c6572206973206e6f7420746f60008201527f6b656e206f776e6572206e6f7220617070726f76656420666f7220616c6c0000602082015250565b6000612589603e83611ee2565b91506125948261252d565b604082019050919050565b600060208201905081810360008301526125b88161257c565b9050919050565b7f736f6c64206f7574000000000000000000000000000000000000000000000000600082015250565b60006125f5600883611ee2565b9150612600826125bf565b602082019050919050565b60006020820190508181036000830152612624816125e8565b9050919050565b7f696e636f727265637420616d6f756e7420706169640000000000000000000000600082015250565b6000612661601583611ee2565b915061266c8261262b565b602082019050919050565b6000602082019050818103600083015261269081612654565b9050919050565b7f4552433732313a2063616c6c6572206973206e6f7420746f6b656e206f776e6560008201527f72206e6f7220617070726f766564000000000000000000000000000000000000602082015250565b60006126f3602e83611ee2565b91506126fe82612697565b604082019050919050565b60006020820190508181036000830152612722816126e6565b9050919050565b7f7469636b657420616c72656164792072656465656d6564000000000000000000600082015250565b600061275f601783611ee2565b915061276a82612729565b602082019050919050565b6000602082019050818103600083015261278e81612752565b9050919050565b600081905092915050565b60006127ab82611ed7565b6127b58185612795565b93506127c5818560208601611ef3565b80840191505092915050565b60006127dd82846127a0565b915081905092915050565b7f4e487b7100000000000000000000000000000000000000000000000000000000600052601260045260246000fd5b7f4e487b7100000000000000000000000000000000000000000000000000000000600052601160045260246000fd5b600061285182611f92565b915061285c83611f92565b92508261286c5761286b6127e8565b5b828204905092915050565b600061288282611f92565b91507fffffffffffffffffffffffffffffffffffffffffffffffffffffffffffffffff8214156128b5576128b4612817565b5b600182019050919050565b60006128cb82611f92565b91506128d683611f92565b9250817fffffffffffffffffffffffffffffffffffffffffffffffffffffffffffffffff048311821515161561290f5761290e612817565b5b828202905092915050565b600061292582611f92565b915061293083611f92565b92508282101561294357612942612817565b5b828203905092915050565b600061295982611f92565b915061296483611f92565b9250827fffffffffffffffffffffffffffffffffffffffffffffffffffffffffffffffff0382111561299957612998612817565b5b828201905092915050565b60006129b082856127a0565b91506129bc82846127a0565b91508190509392505050565b6000819050919050565b6129db816129c8565b82525050565b600060ff82169050919050565b6129f7816129e1565b82525050565b6000608082019050612a1260008301876129d2565b612a1f60208301866129ee565b612a2c60408301856129d2565b612a3960608301846129d2565b95945050505050565b7f696e76616c6964207469636b6574000000000000000000000000000000000000600082015250565b6000612a78600e83611ee2565b9150612a8382612a42565b602082019050919050565b60006020820190508181036000830152612aa781612a6b565b9050919050565b7f4552433732313a20696e76616c696420746f6b656e2049440000000000000000600082015250565b6000612ae4601883611ee2565b9150612aef82612aae565b602082019050919050565b60006020820190508181036000830152612b1381612ad7565b9050919050565b7f4552433732313a2061646472657373207a65726f206973206e6f74206120766160008201527f6c6964206f776e65720000000000000000000000000000000000000000000000602082015250565b6000612b76602983611ee2565b9150612b8182612b1a565b604082019050919050565b60006020820190508181036000830152612ba581612b69565b9050919050565b7f4552433732313a206d696e7420746f20746865207a65726f2061646472657373600082015250565b6000612be2602083611ee2565b9150612bed82612bac565b602082019050919050565b60006020820190508181036000830152612c1181612bd5565b9050919050565b7f4552433732313a20746f6b656e20616c7265616479206d696e74656400000000600082015250565b6000612c4e601c83611ee2565b9150612c5982612c18565b602082019050919050565b60006020820190508181036000830152612c7d81612c41565b9050919050565b7f4552433732313a207472616e736665722066726f6d20696e636f72726563742060008201527f6f776e6572000000000000000000000000000000000000000000000000000000602082015250565b6000612ce0602583611ee2565b9150612ceb82612c84565b604082019050919050565b60006020820190508181036000830152612d0f81612cd3565b9050919050565b7f4552433732313a207472616e7366657220746f20746865207a65726f2061646460008201527f7265737300000000000000000000000000000000000000000000000000000000602082015250565b6000612d72602483611ee2565b9150612d7d82612d16565b604082019050919050565b60006020820190508181036000830152612da181612d65565b9050919050565b6000612db382611f92565b9150612dbe83611f92565b925082612dce57612dcd6127e8565b5b828206905092915050565b7f4e487b7100000000000000000000000000000000000000000000000000000000600052603260045260246000fd5b7f696e76616c6964207369676e6174757265206c656e6774680000000000000000600082015250565b6000612e3e601883611ee2565b9150612e4982612e08565b602082019050919050565b60006020820190508181036000830152612e6d81612e31565b9050919050565b7f4552433732313a20617070726f766520746f2063616c6c657200000000000000600082015250565b6000612eaa601983611ee2565b9150612eb582612e74565b602082019050919050565b60006020820190508181036000830152612ed981612e9d565b9050919050565b7f4552433732313a207472616e7366657220746f206e6f6e20455243373231526560008201527f63656976657220696d706c656d656e7465720000000000000000000000000000602082015250565b6000612f3c603283611ee2565b9150612f4782612ee0565b604082019050919050565b60006020820190508181036000830152612f6b81612f2f565b9050919050565b600081519050919050565b600082825260208201905092915050565b6000612f9982612f72565b612fa38185612f7d565b9350612fb3818560208601611ef3565b612fbc81611f26565b840191505092915050565b6000608082019050612fdc6000830187612027565b612fe96020830186612027565b612ff660408301856120bd565b81810360608301526130088184612f8e565b905095945050505050565b60008151905061302281611e48565b92915050565b60006020828403121561303e5761303d611e12565b5b600061304c84828501613013565b9150509291505056fea2646970667358221220e4a7c490390edc3f749d54983f2cc0ab38a5cd2502d6859f331f1bb84f6567ca64736f6c63430008090033a26469706673582212205e2d5ba535c7e341626ccf0067150e4a09b4b8f61977b10a223d2b338821028964736f6c63430008090033",
    "linkReferences": {},
    "deployedLinkReferences": {}
}